{
  "contractName": "App",
  "abi": [
    {
      "constant": true,
      "inputs": [],
      "name": "m_appName",
      "outputs": [
        {
          "name": "",
          "type": "string"
        }
      ],
      "payable": false,
      "stateMutability": "view",
      "type": "function"
    },
    {
      "constant": true,
      "inputs": [],
      "name": "m_appMultiaddr",
      "outputs": [
        {
          "name": "",
          "type": "bytes"
        }
      ],
      "payable": false,
      "stateMutability": "view",
      "type": "function"
    },
    {
      "constant": false,
      "inputs": [],
      "name": "renounceOwnership",
      "outputs": [],
      "payable": false,
      "stateMutability": "nonpayable",
      "type": "function"
    },
    {
      "constant": true,
      "inputs": [],
      "name": "m_appChecksum",
      "outputs": [
        {
          "name": "",
          "type": "bytes32"
        }
      ],
      "payable": false,
      "stateMutability": "view",
      "type": "function"
    },
    {
      "constant": true,
      "inputs": [],
      "name": "owner",
      "outputs": [
        {
          "name": "",
          "type": "address"
        }
      ],
      "payable": false,
      "stateMutability": "view",
      "type": "function"
    },
    {
      "constant": true,
      "inputs": [],
      "name": "isOwner",
      "outputs": [
        {
          "name": "",
          "type": "bool"
        }
      ],
      "payable": false,
      "stateMutability": "view",
      "type": "function"
    },
    {
      "constant": true,
      "inputs": [],
      "name": "m_appMREnclave",
      "outputs": [
        {
          "name": "",
          "type": "bytes"
        }
      ],
      "payable": false,
      "stateMutability": "view",
      "type": "function"
    },
    {
      "constant": true,
      "inputs": [],
      "name": "m_appType",
      "outputs": [
        {
          "name": "",
          "type": "string"
        }
      ],
      "payable": false,
      "stateMutability": "view",
      "type": "function"
    },
    {
      "inputs": [
        {
          "name": "_appOwner",
          "type": "address"
        },
        {
          "name": "_appName",
          "type": "string"
        },
        {
          "name": "_appType",
          "type": "string"
        },
        {
          "name": "_appMultiaddr",
          "type": "bytes"
        },
        {
          "name": "_appChecksum",
          "type": "bytes32"
        },
        {
          "name": "_appMREnclave",
          "type": "bytes"
        }
      ],
      "payable": false,
      "stateMutability": "nonpayable",
      "type": "constructor"
    },
    {
      "anonymous": false,
      "inputs": [
        {
          "indexed": true,
          "name": "previousOwner",
          "type": "address"
        },
        {
          "indexed": true,
          "name": "newOwner",
          "type": "address"
        }
      ],
      "name": "OwnershipTransferred",
      "type": "event"
    },
    {
      "constant": false,
      "inputs": [
        {
          "name": "",
          "type": "address"
        }
      ],
      "name": "transferOwnership",
      "outputs": [],
      "payable": false,
      "stateMutability": "nonpayable",
      "type": "function"
    }
  ],
  "bytecode": "0x608060405234801561001057600080fd5b50604051610809380380610809833981018060405260c081101561003357600080fd5b81516020830180519193928301929164010000000081111561005457600080fd5b8201602081018481111561006757600080fd5b815164010000000081118282018710171561008157600080fd5b5050929190602001805164010000000081111561009d57600080fd5b820160208101848111156100b057600080fd5b81516401000000008111828201871017156100ca57600080fd5b505092919060200180516401000000008111156100e657600080fd5b820160208101848111156100f957600080fd5b815164010000000081118282018710171561011357600080fd5b5050602082015160409092018051919492939164010000000081111561013857600080fd5b8201602081018481111561014b57600080fd5b815164010000000081118282018710171561016557600080fd5b505060008054600160a060020a0319163317808255604051929550600160a060020a0316935091506000805160206107e9833981519152908290a36101b286640100000000610212810204565b84516101c590600190602088019061026e565b5083516101d990600290602087019061026e565b5082516101ed90600390602086019061026e565b506004829055805161020690600590602084019061026e565b50505050505050610309565b600160a060020a03811661022557600080fd5b60008054604051600160a060020a03808516939216916000805160206107e983398151915291a360008054600160a060020a031916600160a060020a0392909216919091179055565b828054600181600116156101000203166002900490600052602060002090601f016020900481019282601f106102af57805160ff19168380011785556102dc565b828001600101855582156102dc579182015b828111156102dc5782518255916020019190600101906102c1565b506102e89291506102ec565b5090565b61030691905b808211156102e857600081556001016102f2565b90565b6104d1806103186000396000f3fe608060405234801561001057600080fd5b50600436106100b0576000357c0100000000000000000000000000000000000000000000000000000000900480638da5cb5b116100835780638da5cb5b1461015e5780638f32d59b1461018f578063e30d26a8146101ab578063f2fde38b146101b3578063f8c2ceb3146101e6576100b0565b8063358982a3146100b557806339e75d4514610132578063715018a61461013a57806384aaf12e14610144575b600080fd5b6100bd6101ee565b6040805160208082528351818301528351919283929083019185019080838360005b838110156100f75781810151838201526020016100df565b50505050905090810190601f1680156101245780820380516001836020036101000a031916815260200191505b509250505060405180910390f35b6100bd61027b565b6101426102d6565b005b61014c61034b565b60408051918252519081900360200190f35b610166610351565b6040805173ffffffffffffffffffffffffffffffffffffffff9092168252519081900360200190f35b61019761036d565b604080519115158252519081900360200190f35b6100bd61038b565b610142600480360360208110156101c957600080fd5b503573ffffffffffffffffffffffffffffffffffffffff166103e6565b6100bd61044d565b60018054604080516020600284861615610100026000190190941693909304601f810184900484028201840190925281815292918301828280156102735780601f1061024857610100808354040283529160200191610273565b820191906000526020600020905b81548152906001019060200180831161025657829003601f168201915b505050505081565b6003805460408051602060026001851615610100026000190190941693909304601f810184900484028201840190925281815292918301828280156102735780601f1061024857610100808354040283529160200191610273565b6102de61036d565b6102e757600080fd5b6000805460405173ffffffffffffffffffffffffffffffffffffffff909116907f8be0079c531659141344cd1fd0a4f28419497f9722a3daafe3b4186f6b6457e0908390a36000805473ffffffffffffffffffffffffffffffffffffffff19169055565b60045481565b60005473ffffffffffffffffffffffffffffffffffffffff1690565b60005473ffffffffffffffffffffffffffffffffffffffff16331490565b6005805460408051602060026001851615610100026000190190941693909304601f810184900484028201840190925281815292918301828280156102735780601f1061024857610100808354040283529160200191610273565b604080517f08c379a000000000000000000000000000000000000000000000000000000000815260206004820152600860248201527f64697361626c6564000000000000000000000000000000000000000000000000604482015290519081900360640190fd5b6002805460408051602060018416156101000260001901909316849004601f810184900484028201840190925281815292918301828280156102735780601f106102485761010080835404028352916020019161027356fea165627a7a723058206d8d172354d482b0161309c2384dafa6cb46cda2b0f9e3e06101aecc02b2497f00298be0079c531659141344cd1fd0a4f28419497f9722a3daafe3b4186f6b6457e0",
  "source": "pragma solidity ^0.5.7;\n\nimport \"../../node_modules/openzeppelin-solidity/contracts/ownership/Ownable.sol\";\n\ncontract App is Ownable\n{\n\t/**\n\t * Members\n\t */\n\tstring  public m_appName;\n\tstring  public m_appType;\n\tbytes   public m_appMultiaddr;\n\tbytes32 public m_appChecksum;\n\tbytes   public m_appMREnclave;\n\n\t/**\n\t * Constructor\n\t */\n\tconstructor(\n\t\taddress        _appOwner,\n\t\tstring  memory _appName,\n\t\tstring  memory _appType,\n\t\tbytes   memory _appMultiaddr,\n\t\tbytes32        _appChecksum,\n\t\tbytes   memory _appMREnclave)\n\tpublic\n\t{\n\t\t_transferOwnership(_appOwner);\n\t\tm_appName      = _appName;\n\t\tm_appType      = _appType;\n\t\tm_appMultiaddr = _appMultiaddr;\n\t\tm_appChecksum  = _appChecksum;\n\t\tm_appMREnclave = _appMREnclave;\n\t}\n\n\tfunction transferOwnership(address) public { revert(\"disabled\"); }\n\n}\n",
  "sourcePath": "/home/amxx/Work/iExec/code/PoCo/contracts/registries/App.sol",
  "compiler": {
    "name": "solc",
    "version": "0.5.7+commit.6da8b019.Emscripten.clang"
  },
  "schemaVersion": "3.0.6",
  "updatedAt": "2019-04-05T12:12:17.529Z",
  "devdoc": {
    "methods": {
      "isOwner()": {
        "return": "true if `msg.sender` is the owner of the contract."
      },
      "owner()": {
        "return": "the address of the owner."
      },
      "renounceOwnership()": {
        "details": "Allows the current owner to relinquish control of the contract."
      }
    }
  },
  "userdoc": {
    "methods": {
      "constructor": "Constructor",
      "renounceOwnership()": {
        "notice": "Renouncing to ownership will leave the contract without an owner. It will not be possible to call the functions with the `onlyOwner` modifier anymore."
      }
    }
  }
}