{
  "contractName": "Broker",
  "abi": [
    {
      "constant": true,
      "inputs": [
        {
          "name": "",
          "type": "address"
        }
      ],
      "name": "m_preferences",
      "outputs": [
        {
          "name": "reward",
          "type": "uint256"
        },
        {
          "name": "maxgasprice",
          "type": "uint256"
        }
      ],
      "payable": false,
      "stateMutability": "view",
      "type": "function"
    },
    {
      "constant": true,
      "inputs": [
        {
          "name": "",
          "type": "address"
        }
      ],
      "name": "m_balance",
      "outputs": [
        {
          "name": "",
          "type": "uint256"
        }
      ],
      "payable": false,
      "stateMutability": "view",
      "type": "function"
    },
    {
      "constant": true,
      "inputs": [],
      "name": "iexecclerk",
      "outputs": [
        {
          "name": "",
          "type": "address"
        }
      ],
      "payable": false,
      "stateMutability": "view",
      "type": "function"
    },
    {
      "inputs": [
        {
          "name": "_iexecclerk",
          "type": "address"
        }
      ],
      "payable": false,
      "stateMutability": "nonpayable",
      "type": "constructor"
    },
    {
      "payable": true,
      "stateMutability": "payable",
      "type": "fallback"
    },
    {
      "constant": false,
      "inputs": [],
      "name": "deposit",
      "outputs": [],
      "payable": true,
      "stateMutability": "payable",
      "type": "function"
    },
    {
      "constant": false,
      "inputs": [
        {
          "name": "_account",
          "type": "address"
        }
      ],
      "name": "depositFor",
      "outputs": [],
      "payable": true,
      "stateMutability": "payable",
      "type": "function"
    },
    {
      "constant": false,
      "inputs": [
        {
          "name": "_amount",
          "type": "uint256"
        }
      ],
      "name": "withdraw",
      "outputs": [],
      "payable": false,
      "stateMutability": "nonpayable",
      "type": "function"
    },
    {
      "constant": false,
      "inputs": [
        {
          "name": "_reward",
          "type": "uint256"
        },
        {
          "name": "_maxgasprice",
          "type": "uint256"
        }
      ],
      "name": "setPreferences",
      "outputs": [],
      "payable": false,
      "stateMutability": "nonpayable",
      "type": "function"
    },
    {
      "constant": false,
      "inputs": [
        {
          "components": [
            {
              "name": "app",
              "type": "address"
            },
            {
              "name": "appprice",
              "type": "uint256"
            },
            {
              "name": "volume",
              "type": "uint256"
            },
            {
              "name": "tag",
              "type": "bytes32"
            },
            {
              "name": "datasetrestrict",
              "type": "address"
            },
            {
              "name": "workerpoolrestrict",
              "type": "address"
            },
            {
              "name": "requesterrestrict",
              "type": "address"
            },
            {
              "name": "salt",
              "type": "bytes32"
            },
            {
              "name": "sign",
              "type": "bytes"
            }
          ],
          "name": "_apporder",
          "type": "tuple"
        },
        {
          "components": [
            {
              "name": "dataset",
              "type": "address"
            },
            {
              "name": "datasetprice",
              "type": "uint256"
            },
            {
              "name": "volume",
              "type": "uint256"
            },
            {
              "name": "tag",
              "type": "bytes32"
            },
            {
              "name": "apprestrict",
              "type": "address"
            },
            {
              "name": "workerpoolrestrict",
              "type": "address"
            },
            {
              "name": "requesterrestrict",
              "type": "address"
            },
            {
              "name": "salt",
              "type": "bytes32"
            },
            {
              "name": "sign",
              "type": "bytes"
            }
          ],
          "name": "_datasetorder",
          "type": "tuple"
        },
        {
          "components": [
            {
              "name": "workerpool",
              "type": "address"
            },
            {
              "name": "workerpoolprice",
              "type": "uint256"
            },
            {
              "name": "volume",
              "type": "uint256"
            },
            {
              "name": "tag",
              "type": "bytes32"
            },
            {
              "name": "category",
              "type": "uint256"
            },
            {
              "name": "trust",
              "type": "uint256"
            },
            {
              "name": "apprestrict",
              "type": "address"
            },
            {
              "name": "datasetrestrict",
              "type": "address"
            },
            {
              "name": "requesterrestrict",
              "type": "address"
            },
            {
              "name": "salt",
              "type": "bytes32"
            },
            {
              "name": "sign",
              "type": "bytes"
            }
          ],
          "name": "_workerpoolorder",
          "type": "tuple"
        },
        {
          "components": [
            {
              "name": "app",
              "type": "address"
            },
            {
              "name": "appmaxprice",
              "type": "uint256"
            },
            {
              "name": "dataset",
              "type": "address"
            },
            {
              "name": "datasetmaxprice",
              "type": "uint256"
            },
            {
              "name": "workerpool",
              "type": "address"
            },
            {
              "name": "workerpoolmaxprice",
              "type": "uint256"
            },
            {
              "name": "requester",
              "type": "address"
            },
            {
              "name": "volume",
              "type": "uint256"
            },
            {
              "name": "tag",
              "type": "bytes32"
            },
            {
              "name": "category",
              "type": "uint256"
            },
            {
              "name": "trust",
              "type": "uint256"
            },
            {
              "name": "beneficiary",
              "type": "address"
            },
            {
              "name": "callback",
              "type": "address"
            },
            {
              "name": "params",
              "type": "string"
            },
            {
              "name": "salt",
              "type": "bytes32"
            },
            {
              "name": "sign",
              "type": "bytes"
            }
          ],
          "name": "_requestorder",
          "type": "tuple"
        }
      ],
      "name": "matchOrdersForPool",
      "outputs": [
        {
          "name": "",
          "type": "bytes32"
        }
      ],
      "payable": false,
      "stateMutability": "nonpayable",
      "type": "function"
    },
    {
      "constant": false,
      "inputs": [
        {
          "components": [
            {
              "name": "app",
              "type": "address"
            },
            {
              "name": "appprice",
              "type": "uint256"
            },
            {
              "name": "volume",
              "type": "uint256"
            },
            {
              "name": "tag",
              "type": "bytes32"
            },
            {
              "name": "datasetrestrict",
              "type": "address"
            },
            {
              "name": "workerpoolrestrict",
              "type": "address"
            },
            {
              "name": "requesterrestrict",
              "type": "address"
            },
            {
              "name": "salt",
              "type": "bytes32"
            },
            {
              "name": "sign",
              "type": "bytes"
            }
          ],
          "name": "_apporder",
          "type": "tuple"
        },
        {
          "components": [
            {
              "name": "dataset",
              "type": "address"
            },
            {
              "name": "datasetprice",
              "type": "uint256"
            },
            {
              "name": "volume",
              "type": "uint256"
            },
            {
              "name": "tag",
              "type": "bytes32"
            },
            {
              "name": "apprestrict",
              "type": "address"
            },
            {
              "name": "workerpoolrestrict",
              "type": "address"
            },
            {
              "name": "requesterrestrict",
              "type": "address"
            },
            {
              "name": "salt",
              "type": "bytes32"
            },
            {
              "name": "sign",
              "type": "bytes"
            }
          ],
          "name": "_datasetorder",
          "type": "tuple"
        },
        {
          "components": [
            {
              "name": "workerpool",
              "type": "address"
            },
            {
              "name": "workerpoolprice",
              "type": "uint256"
            },
            {
              "name": "volume",
              "type": "uint256"
            },
            {
              "name": "tag",
              "type": "bytes32"
            },
            {
              "name": "category",
              "type": "uint256"
            },
            {
              "name": "trust",
              "type": "uint256"
            },
            {
              "name": "apprestrict",
              "type": "address"
            },
            {
              "name": "datasetrestrict",
              "type": "address"
            },
            {
              "name": "requesterrestrict",
              "type": "address"
            },
            {
              "name": "salt",
              "type": "bytes32"
            },
            {
              "name": "sign",
              "type": "bytes"
            }
          ],
          "name": "_workerpoolorder",
          "type": "tuple"
        },
        {
          "components": [
            {
              "name": "app",
              "type": "address"
            },
            {
              "name": "appmaxprice",
              "type": "uint256"
            },
            {
              "name": "dataset",
              "type": "address"
            },
            {
              "name": "datasetmaxprice",
              "type": "uint256"
            },
            {
              "name": "workerpool",
              "type": "address"
            },
            {
              "name": "workerpoolmaxprice",
              "type": "uint256"
            },
            {
              "name": "requester",
              "type": "address"
            },
            {
              "name": "volume",
              "type": "uint256"
            },
            {
              "name": "tag",
              "type": "bytes32"
            },
            {
              "name": "category",
              "type": "uint256"
            },
            {
              "name": "trust",
              "type": "uint256"
            },
            {
              "name": "beneficiary",
              "type": "address"
            },
            {
              "name": "callback",
              "type": "address"
            },
            {
              "name": "params",
              "type": "string"
            },
            {
              "name": "salt",
              "type": "bytes32"
            },
            {
              "name": "sign",
              "type": "bytes"
            }
          ],
          "name": "_requestorder",
          "type": "tuple"
        }
      ],
      "name": "matchOrdersForRequester",
      "outputs": [
        {
          "name": "",
          "type": "bytes32"
        }
      ],
      "payable": false,
      "stateMutability": "nonpayable",
      "type": "function"
    }
  ],
  "bytecode": "0x608060405234801561001057600080fd5b5060405160208061119d833981018060405261002f9190810190610067565b60008054600160a060020a031916600160a060020a03929092169190911790556100aa565b6000610060825161008d565b9392505050565b60006020828403121561007957600080fd5b60006100858484610054565b949350505050565b60006100988261009e565b92915050565b600160a060020a031690565b6110e4806100b96000396000f3fe6080604052600436106100a3576000357c010000000000000000000000000000000000000000000000000000000090048063a95e1b3611610076578063a95e1b361461017b578063aa67c9191461019b578063b01c6846146101ae578063d0e30db0146101d0578063fe9a532d146101d8576100a3565b8063279e6a32146100d55780632e1a7d4d1461010b578063693751b51461012d578063a8d3b3d11461015b575b336000908152600160205260409020546100c3903463ffffffff6101f816565b33600090815260016020526040902055005b3480156100e157600080fd5b506100f56100f0366004610af4565b610213565b6040516101029190610f4e565b60405180910390f35b34801561011757600080fd5b5061012b610126366004610bb4565b610390565b005b34801561013957600080fd5b5061014d610148366004610a92565b6103f2565b604051610102929190610fc1565b34801561016757600080fd5b506100f5610176366004610a92565b61040b565b34801561018757600080fd5b5061012b610196366004610bd2565b61041d565b61012b6101a9366004610a92565b610437565b3480156101ba57600080fd5b506101c361047c565b6040516101029190610f5c565b61012b61048b565b3480156101e457600080fd5b506100f56101f3366004610af4565b6104bd565b60008282018381101561020a57600080fd5b90505b92915050565b6000805a600080546040517f156194d40000000000000000000000000000000000000000000000000000000081529293509091600160a060020a039091169063156194d49061026c908a908a908a908a90600401610f6a565b602060405180830381600087803b15801561028657600080fd5b505af115801561029a573d6000803e3d6000fd5b505050506040513d601f19601f820116820180604052506102be9190810190610ad6565b60c085015190915060005a600160a060020a038316600090815260026020526040902060010154908503620153d801906102ff903a9063ffffffff61063816565b600160a060020a0384166000908152600260209081526040808320546001909252909120549290910201915061033b908263ffffffff61064e16565b600160a060020a038316600090815260016020526040808220929092559051339183156108fc02918491818181858888f19350505050158015610382573d6000803e3d6000fd5b509198975050505050505050565b336000908152600160205260409020546103b0908263ffffffff61064e16565b33600081815260016020526040808220939093559151909183156108fc02918491818181858888f193505050501580156103ee573d6000803e3d6000fd5b5050565b6002602052600090815260409020805460019091015482565b60016020526000908152604090205481565b336000908152600260205260409020918255600190910155565b600160a060020a038116600090815260016020526040902054610460903463ffffffff6101f816565b600160a060020a03909116600090815260016020526040902055565b600054600160a060020a031681565b336000908152600160205260409020546104ab903463ffffffff6101f816565b33600090815260016020526040902055565b6000805a600080546040517f156194d40000000000000000000000000000000000000000000000000000000081529293509091600160a060020a039091169063156194d490610516908a908a908a908a90600401610f6a565b602060405180830381600087803b15801561053057600080fd5b505af1158015610544573d6000803e3d6000fd5b505050506040513d601f19601f820116820180604052506105689190810190610ad6565b905060008560000151600160a060020a0316638da5cb5b6040518163ffffffff167c010000000000000000000000000000000000000000000000000000000002815260040160206040518083038186803b1580156105c557600080fd5b505afa1580156105d9573d6000803e3d6000fd5b505050506040513d601f19601f820116820180604052506105fd9190810190610ab8565b905060005a600160a060020a038316600090815260026020526040902060010154908503620153d801906102ff903a9063ffffffff61063816565b6000818310610647578161020a565b5090919050565b60008282111561065d57600080fd5b50900390565b600061020a823561103f565b600061020a825161103f565b600061020a823561104a565b600061020a825161104a565b600082601f8301126106a457600080fd5b81356106b76106b28261100a565b610fe3565b915080825260208301602083018583830111156106d357600080fd5b6106de838284611064565b50505092915050565b600061012082840312156106fa57600080fd5b610705610120610fe3565b905060006107138484610663565b82525060206107248484830161067b565b60208301525060406107388482850161067b565b604083015250606061074c8482850161067b565b606083015250608061076084828501610663565b60808301525060a061077484828501610663565b60a08301525060c061078884828501610663565b60c08301525060e061079c8482850161067b565b60e08301525061010082013567ffffffffffffffff8111156107bd57600080fd5b6107c984828501610693565b6101008301525092915050565b600061020082840312156107e957600080fd5b6107f4610200610fe3565b905060006108028484610663565b82525060206108138484830161067b565b602083015250604061082784828501610663565b604083015250606061083b8482850161067b565b606083015250608061084f84828501610663565b60808301525060a06108638482850161067b565b60a08301525060c061087784828501610663565b60c08301525060e061088b8482850161067b565b60e0830152506101006108a08482850161067b565b610100830152506101206108b68482850161067b565b610120830152506101406108cc8482850161067b565b610140830152506101606108e284828501610663565b610160830152506101806108f884828501610663565b610180830152506101a082013567ffffffffffffffff81111561091a57600080fd5b61092684828501610693565b6101a0830152506101c061093c8482850161067b565b6101c0830152506101e082013567ffffffffffffffff81111561095e57600080fd5b61096a84828501610693565b6101e08301525092915050565b6000610160828403121561098a57600080fd5b610995610160610fe3565b905060006109a38484610663565b82525060206109b48484830161067b565b60208301525060406109c88482850161067b565b60408301525060606109dc8482850161067b565b60608301525060806109f08482850161067b565b60808301525060a0610a048482850161067b565b60a08301525060c0610a1884828501610663565b60c08301525060e0610a2c84828501610663565b60e083015250610100610a4184828501610663565b61010083015250610120610a578482850161067b565b6101208301525061014082013567ffffffffffffffff811115610a7957600080fd5b610a8584828501610693565b6101408301525092915050565b600060208284031215610aa457600080fd5b6000610ab08484610663565b949350505050565b600060208284031215610aca57600080fd5b6000610ab0848461066f565b600060208284031215610ae857600080fd5b6000610ab08484610687565b60008060008060808587031215610b0a57600080fd5b843567ffffffffffffffff811115610b2157600080fd5b610b2d878288016106e7565b945050602085013567ffffffffffffffff811115610b4a57600080fd5b610b56878288016106e7565b935050604085013567ffffffffffffffff811115610b7357600080fd5b610b7f87828801610977565b925050606085013567ffffffffffffffff811115610b9c57600080fd5b610ba8878288016107d6565b91505092959194509250565b600060208284031215610bc657600080fd5b6000610ab0848461067b565b60008060408385031215610be557600080fd5b6000610bf1858561067b565b9250506020610c028582860161067b565b9150509250929050565b610c158161103f565b82525050565b610c158161104a565b6000610c2f82611032565b610c398185611036565b9350610c49818560208601611070565b610c52816110a0565b9093019392505050565b610c1581611059565b8051600090610120840190610c7a8582610c0c565b506020830151610c8d6020860182610c1b565b506040830151610ca06040860182610c1b565b506060830151610cb36060860182610c1b565b506080830151610cc66080860182610c0c565b5060a0830151610cd960a0860182610c0c565b5060c0830151610cec60c0860182610c0c565b5060e0830151610cff60e0860182610c1b565b50610100830151848203610100860152610d198282610c24565b95945050505050565b8051600090610200840190610d378582610c0c565b506020830151610d4a6020860182610c1b565b506040830151610d5d6040860182610c0c565b506060830151610d706060860182610c1b565b506080830151610d836080860182610c0c565b5060a0830151610d9660a0860182610c1b565b5060c0830151610da960c0860182610c0c565b5060e0830151610dbc60e0860182610c1b565b50610100830151610dd1610100860182610c1b565b50610120830151610de6610120860182610c1b565b50610140830151610dfb610140860182610c1b565b50610160830151610e10610160860182610c0c565b50610180830151610e25610180860182610c0c565b506101a08301518482036101a0860152610e3f8282610c24565b9150506101c0830151610e566101c0860182610c1b565b506101e08301518482036101e0860152610d198282610c24565b8051600090610160840190610e858582610c0c565b506020830151610e986020860182610c1b565b506040830151610eab6040860182610c1b565b506060830151610ebe6060860182610c1b565b506080830151610ed16080860182610c1b565b5060a0830151610ee460a0860182610c1b565b5060c0830151610ef760c0860182610c0c565b5060e0830151610f0a60e0860182610c0c565b50610100830151610f1f610100860182610c0c565b50610120830151610f34610120860182610c1b565b50610140830151848203610140860152610d198282610c24565b6020810161020d8284610c1b565b6020810161020d8284610c5c565b60808082528101610f7b8187610c65565b90508181036020830152610f8f8186610c65565b90508181036040830152610fa38185610e70565b90508181036060830152610fb78184610d22565b9695505050505050565b60408101610fcf8285610c1b565b610fdc6020830184610c1b565b9392505050565b60405181810167ffffffffffffffff8111828210171561100257600080fd5b604052919050565b600067ffffffffffffffff82111561102157600080fd5b506020601f91909101601f19160190565b5190565b90815260200190565b600061020d8261104d565b90565b600160a060020a031690565b600061020d8261103f565b82818337506000910152565b60005b8381101561108b578181015183820152602001611073565b8381111561109a576000848401525b50505050565b601f01601f19169056fea265627a7a7230582074ce7f813bd90c0be57c7f56ab0619e4f08cc89c4721786433a601a554850a6d6c6578706572696d656e74616cf50037",
  "source": "pragma solidity ^0.5.7;\npragma experimental ABIEncoderV2;\n\nimport \"../node_modules/iexec-solidity/contracts/Libs/SafeMath.sol\";\n\nimport \"./libs/IexecODBLibOrders.sol\";\nimport \"./IexecClerk.sol\";\n\ncontract Broker\n{\n\tusing SafeMath for uint256;\n\n\tstruct Preferences\n\t{\n\t\tuint reward;\n\t\tuint maxgasprice;\n\t}\n\n\tIexecClerk                      public iexecclerk;\n\tmapping(address => uint256    ) public m_balance;\n\tmapping(address => Preferences) public m_preferences;\n\n\tconstructor(address _iexecclerk)\n\tpublic\n\t{\n\t\tiexecclerk = IexecClerk(_iexecclerk);\n\t}\n\n\tfunction ()\n\texternal payable\n\t{\n\t\tm_balance[msg.sender] = m_balance[msg.sender].add(msg.value);\n\t}\n\n\tfunction deposit()\n\texternal payable\n\t{\n\t\tm_balance[msg.sender] = m_balance[msg.sender].add(msg.value);\n\t}\n\n\tfunction depositFor(address _account)\n\texternal payable\n\t{\n\t\tm_balance[_account] = m_balance[_account].add(msg.value);\n\t}\n\n\tfunction withdraw(uint256 _amount)\n\texternal\n\t{\n\t\tm_balance[msg.sender] = m_balance[msg.sender].sub(_amount);\n\t\tmsg.sender.transfer(_amount);\n\t}\n\n\tfunction setPreferences(uint256 _reward, uint256 _maxgasprice)\n\texternal\n\t{\n\t\tm_preferences[msg.sender].reward      = _reward;\n\t\tm_preferences[msg.sender].maxgasprice = _maxgasprice;\n\t}\n\n\tfunction matchOrdersForPool(\n\t\tIexecODBLibOrders.AppOrder        memory _apporder,\n\t\tIexecODBLibOrders.DatasetOrder    memory _datasetorder,\n\t\tIexecODBLibOrders.WorkerpoolOrder memory _workerpoolorder,\n\t\tIexecODBLibOrders.RequestOrder    memory _requestorder)\n\tpublic returns (bytes32)\n\t{\n\t\tuint256 gasBefore = gasleft();\n\n\t\tbytes32 dealid = iexecclerk.matchOrders(\n\t\t\t_apporder,\n\t\t\t_datasetorder,\n\t\t\t_workerpoolorder,\n\t\t\t_requestorder);\n\n\t\taddress payer = Workerpool(_workerpoolorder.workerpool).owner();\n\t\tuint256 price = m_preferences[payer].reward + tx.gasprice.min(m_preferences[payer].maxgasprice) * (87000 + gasBefore - gasleft());\n\t\tm_balance[payer] = m_balance[payer].sub(price);\n\t\tmsg.sender.transfer(price);\n\n\t\treturn dealid;\n\t}\n\n\tfunction matchOrdersForRequester(\n\t\tIexecODBLibOrders.AppOrder        memory _apporder,\n\t\tIexecODBLibOrders.DatasetOrder    memory _datasetorder,\n\t\tIexecODBLibOrders.WorkerpoolOrder memory _workerpoolorder,\n\t\tIexecODBLibOrders.RequestOrder    memory _requestorder)\n\tpublic returns (bytes32)\n\t{\n\t\tuint256 gasBefore = gasleft();\n\n\t\tbytes32 dealid = iexecclerk.matchOrders(\n\t\t\t_apporder,\n\t\t\t_datasetorder,\n\t\t\t_workerpoolorder,\n\t\t\t_requestorder);\n\n\t\taddress payer = _requestorder.requester;\n\t\tuint256 price = m_preferences[payer].reward + tx.gasprice.min(m_preferences[payer].maxgasprice) * (87000 + gasBefore - gasleft());\n\t\tm_balance[payer] = m_balance[payer].sub(price);\n\t\tmsg.sender.transfer(price);\n\n\t\treturn dealid;\n\t}\n\n\n}\n",
  "sourcePath": "/home/amxx/Work/iExec/code/PoCo/contracts/Broker.sol",
  "compiler": {
    "name": "solc",
    "version": "0.5.7+commit.6da8b019.Emscripten.clang"
  },
  "schemaVersion": "3.0.6",
  "updatedAt": "2019-04-05T12:12:17.555Z",
  "devdoc": {
    "methods": {}
  },
  "userdoc": {
    "methods": {}
  }
}