{
  "contractName": "Escrow",
  "abi": [
    {
      "constant": true,
      "inputs": [],
      "name": "token",
      "outputs": [
        {
          "name": "",
          "type": "address"
        }
      ],
      "payable": false,
      "stateMutability": "view",
      "type": "function"
    },
    {
      "inputs": [
        {
          "name": "_token",
          "type": "address"
        }
      ],
      "payable": false,
      "stateMutability": "nonpayable",
      "type": "constructor"
    },
    {
      "anonymous": false,
      "inputs": [
        {
          "indexed": false,
          "name": "owner",
          "type": "address"
        },
        {
          "indexed": false,
          "name": "amount",
          "type": "uint256"
        }
      ],
      "name": "Deposit",
      "type": "event"
    },
    {
      "anonymous": false,
      "inputs": [
        {
          "indexed": false,
          "name": "owner",
          "type": "address"
        },
        {
          "indexed": false,
          "name": "amount",
          "type": "uint256"
        },
        {
          "indexed": false,
          "name": "target",
          "type": "address"
        }
      ],
      "name": "DepositFor",
      "type": "event"
    },
    {
      "anonymous": false,
      "inputs": [
        {
          "indexed": false,
          "name": "owner",
          "type": "address"
        },
        {
          "indexed": false,
          "name": "amount",
          "type": "uint256"
        }
      ],
      "name": "Withdraw",
      "type": "event"
    },
    {
      "anonymous": false,
      "inputs": [
        {
          "indexed": false,
          "name": "user",
          "type": "address"
        },
        {
          "indexed": false,
          "name": "amount",
          "type": "uint256"
        },
        {
          "indexed": false,
          "name": "ref",
          "type": "bytes32"
        }
      ],
      "name": "Reward",
      "type": "event"
    },
    {
      "anonymous": false,
      "inputs": [
        {
          "indexed": false,
          "name": "user",
          "type": "address"
        },
        {
          "indexed": false,
          "name": "amount",
          "type": "uint256"
        },
        {
          "indexed": false,
          "name": "ref",
          "type": "bytes32"
        }
      ],
      "name": "Seize",
      "type": "event"
    },
    {
      "anonymous": false,
      "inputs": [
        {
          "indexed": false,
          "name": "user",
          "type": "address"
        },
        {
          "indexed": false,
          "name": "amount",
          "type": "uint256"
        }
      ],
      "name": "Lock",
      "type": "event"
    },
    {
      "anonymous": false,
      "inputs": [
        {
          "indexed": false,
          "name": "user",
          "type": "address"
        },
        {
          "indexed": false,
          "name": "amount",
          "type": "uint256"
        }
      ],
      "name": "Unlock",
      "type": "event"
    },
    {
      "constant": true,
      "inputs": [
        {
          "name": "_user",
          "type": "address"
        }
      ],
      "name": "viewAccount",
      "outputs": [
        {
          "components": [
            {
              "name": "stake",
              "type": "uint256"
            },
            {
              "name": "locked",
              "type": "uint256"
            }
          ],
          "name": "account",
          "type": "tuple"
        }
      ],
      "payable": false,
      "stateMutability": "view",
      "type": "function"
    },
    {
      "constant": false,
      "inputs": [
        {
          "name": "_amount",
          "type": "uint256"
        }
      ],
      "name": "deposit",
      "outputs": [
        {
          "name": "",
          "type": "bool"
        }
      ],
      "payable": false,
      "stateMutability": "nonpayable",
      "type": "function"
    },
    {
      "constant": false,
      "inputs": [
        {
          "name": "_amount",
          "type": "uint256"
        },
        {
          "name": "_target",
          "type": "address"
        }
      ],
      "name": "depositFor",
      "outputs": [
        {
          "name": "",
          "type": "bool"
        }
      ],
      "payable": false,
      "stateMutability": "nonpayable",
      "type": "function"
    },
    {
      "constant": false,
      "inputs": [
        {
          "name": "_amounts",
          "type": "uint256[]"
        },
        {
          "name": "_targets",
          "type": "address[]"
        }
      ],
      "name": "depositForArray",
      "outputs": [
        {
          "name": "",
          "type": "bool"
        }
      ],
      "payable": false,
      "stateMutability": "nonpayable",
      "type": "function"
    },
    {
      "constant": false,
      "inputs": [
        {
          "name": "_amount",
          "type": "uint256"
        }
      ],
      "name": "withdraw",
      "outputs": [
        {
          "name": "",
          "type": "bool"
        }
      ],
      "payable": false,
      "stateMutability": "nonpayable",
      "type": "function"
    }
  ],
  "bytecode": "0x608060405234801561001057600080fd5b50604051602080610905833981018060405261002f9190810190610067565b60008054600160a060020a031916600160a060020a03929092169190911790556100aa565b6000610060825161008d565b9392505050565b60006020828403121561007957600080fd5b60006100858484610054565b949350505050565b60006100988261009e565b92915050565b600160a060020a031690565b61084c806100b96000396000f3fe608060405234801561001057600080fd5b506004361061007e577c010000000000000000000000000000000000000000000000000000000060003504632e1a7d4d81146100835780633354f8a5146100ac57806336efd16f146100bf5780636b55f4a5146100d2578063b6b55f25146100f2578063fc0c546a14610105575b600080fd5b610096610091366004610697565b61011a565b6040516100a391906107b7565b60405180910390f35b6100966100ba366004610609565b610230565b6100966100cd3660046106b5565b610297565b6100e56100e03660046105eb565b6103df565b6040516100a391906107d3565b610096610100366004610697565b61041a565b61010d610527565b6040516100a391906107c5565b3360009081526001602052604081205461013a908363ffffffff61053616565b33600081815260016020526040808220939093555491517fa9059cbb000000000000000000000000000000000000000000000000000000008152600160a060020a039092169163a9059cbb91610194918690600401610774565b602060405180830381600087803b1580156101ae57600080fd5b505af11580156101c2573d6000803e3d6000fd5b505050506040513d601f19601f820116820180604052506101e69190810190610679565b6101ef57600080fd5b7f884edad9ce6fa2440d8a54cc123490eb96d2768479d49ff9c7366125a94243643383604051610220929190610774565b60405180910390a1506001919050565b600083821461023e57600080fd5b60005b848110156102895761028086868381811061025857fe5b9050602002013585858481811061026b57fe5b90506020020135600160a060020a0316610297565b50600101610241565b50600190505b949350505050565b6000600160a060020a0382166102ac57600080fd5b6000546040517f23b872dd000000000000000000000000000000000000000000000000000000008152600160a060020a03909116906323b872dd906102f99033903090889060040161074c565b602060405180830381600087803b15801561031357600080fd5b505af1158015610327573d6000803e3d6000fd5b505050506040513d601f19601f8201168201806040525061034b9190810190610679565b61035457600080fd5b600160a060020a03821660009081526001602052604090205461037d908463ffffffff61054b16565b600160a060020a0383166000908152600160205260409081902091909155517fcce62bfcdb09eddbe4e5ff5ec3bafdbabc25a52e1cf34f014a0a7a0864f9634c906103cd9033908690869061078f565b60405180910390a15060015b92915050565b6103e7610564565b50600160a060020a0316600090815260016020818152604092839020835180850190945280548452909101549082015290565b600080546040517f23b872dd000000000000000000000000000000000000000000000000000000008152600160a060020a03909116906323b872dd906104689033903090879060040161074c565b602060405180830381600087803b15801561048257600080fd5b505af1158015610496573d6000803e3d6000fd5b505050506040513d601f19601f820116820180604052506104ba9190810190610679565b6104c357600080fd5b336000908152600160205260409020546104e3908363ffffffff61054b16565b33600081815260016020526040908190209290925590517fe1fffcc4923d04b559f4d29a8bfc6cda04eb5b0d3c460751c2402c5c5cc9109c91610220918590610774565b600054600160a060020a031681565b60008282111561054557600080fd5b50900390565b60008282018381101561055d57600080fd5b9392505050565b604051806040016040528060008152602001600081525090565b600061055d82356107e1565b60008083601f84011261059c57600080fd5b50813567ffffffffffffffff8111156105b457600080fd5b6020830191508360208202830111156105cc57600080fd5b9250929050565b600061055d82516107ec565b600061055d82356107fd565b6000602082840312156105fd57600080fd5b600061028f848461057e565b6000806000806040858703121561061f57600080fd5b843567ffffffffffffffff81111561063657600080fd5b6106428782880161058a565b9450945050602085013567ffffffffffffffff81111561066157600080fd5b61066d8782880161058a565b95989497509550505050565b60006020828403121561068b57600080fd5b600061028f84846105d3565b6000602082840312156106a957600080fd5b600061028f84846105df565b600080604083850312156106c857600080fd5b60006106d485856105df565b92505060206106e58582860161057e565b9150509250929050565b6106f881610800565b82525050565b6106f8816107e1565b6106f8816107ec565b6106f881610807565b8051604083019061072a8482610743565b50602082015161073d6020850182610743565b50505050565b6106f8816107fd565b6060810161075a82866106ef565b61076760208301856106fe565b61028f6040830184610743565b6040810161078282856106ef565b61055d6020830184610743565b6060810161079d82866106ef565b6107aa6020830185610743565b61028f60408301846106fe565b602081016103d98284610707565b602081016103d98284610710565b604081016103d98284610719565b60006103d9826107f1565b151590565b600160a060020a031690565b90565b60006103d9825b60006103d9826107e156fea265627a7a723058202588749705230a0615df15f7e7e4b4930a32da4ef1c9cd7459e8be78c8e9a0e06c6578706572696d656e74616cf50037",
  "source": "pragma solidity ^0.5.7;\npragma experimental ABIEncoderV2;\n\nimport \"../node_modules/iexec-solidity/contracts/ERC20_Token/IERC20.sol\";\nimport \"../node_modules/iexec-solidity/contracts/Libs/SafeMath.sol\";\n\nimport \"./libs/IexecODBLibCore.sol\";\n\ncontract Escrow\n{\n\tusing SafeMath for uint256;\n\n\t/**\n\t* token contract for transfers.\n\t*/\n\tIERC20 public token;\n\n\t/**\n\t * Escrow content\n\t */\n\tmapping(address => IexecODBLibCore.Account) m_accounts;\n\n\t/**\n\t * Events\n\t */\n\tevent Deposit   (address owner, uint256 amount);\n\tevent DepositFor(address owner, uint256 amount, address target);\n\tevent Withdraw  (address owner, uint256 amount);\n\tevent Reward    (address user,  uint256 amount, bytes32 ref);\n\tevent Seize     (address user,  uint256 amount, bytes32 ref);\n\tevent Lock      (address user,  uint256 amount);\n\tevent Unlock    (address user,  uint256 amount);\n\n\t/**\n\t * Constructor\n\t */\n\tconstructor(address _token)\n\tpublic\n\t{\n\t\ttoken = IERC20(_token);\n\t}\n\n\t/**\n\t * Accessor\n\t */\n\tfunction viewAccount(address _user)\n\texternal view returns (IexecODBLibCore.Account memory account)\n\t{\n\t\treturn m_accounts[_user];\n\t}\n\n\t/**\n\t * Wallet methods: public\n\t */\n\tfunction deposit(uint256 _amount)\n\texternal returns (bool)\n\t{\n\t\trequire(token.transferFrom(msg.sender, address(this), _amount));\n\t\tm_accounts[msg.sender].stake = m_accounts[msg.sender].stake.add(_amount);\n\t\temit Deposit(msg.sender, _amount);\n\t\treturn true;\n\t}\n\n\tfunction depositFor(uint256 _amount, address _target)\n\tpublic returns (bool)\n\t{\n\t\trequire(_target != address(0));\n\n\t\trequire(token.transferFrom(msg.sender, address(this), _amount));\n\t\tm_accounts[_target].stake = m_accounts[_target].stake.add(_amount);\n\t\temit DepositFor(msg.sender, _amount, _target);\n\t\treturn true;\n\t}\n\n\tfunction depositForArray(uint256[] calldata _amounts, address[] calldata _targets)\n\texternal returns (bool)\n\t{\n\t\trequire(_amounts.length == _targets.length);\n\t\tfor (uint i = 0; i < _amounts.length; ++i)\n\t\t{\n\t\t\tdepositFor(_amounts[i], _targets[i]);\n\t\t}\n\t\treturn true;\n\t}\n\n\tfunction withdraw(uint256 _amount)\n\texternal returns (bool)\n\t{\n\t\tm_accounts[msg.sender].stake = m_accounts[msg.sender].stake.sub(_amount);\n\t\trequire(token.transfer(msg.sender, _amount));\n\t\temit Withdraw(msg.sender, _amount);\n\t\treturn true;\n\t}\n\n\t/**\n\t * Wallet methods: Internal\n\t */\n\tfunction reward(address _user, uint256 _amount, bytes32 _reference) internal /* returns (bool) */\n\t{\n\t\tm_accounts[_user].stake = m_accounts[_user].stake.add(_amount);\n\t\temit Reward(_user, _amount, _reference);\n\t\t/* return true; */\n\t}\n\tfunction seize(address _user, uint256 _amount, bytes32 _reference) internal /* returns (bool) */\n\t{\n\t\tm_accounts[_user].locked = m_accounts[_user].locked.sub(_amount);\n\t\temit Seize(_user, _amount, _reference);\n\t\t/* return true; */\n\t}\n\tfunction lock(address _user, uint256 _amount) internal /* returns (bool) */\n\t{\n\t\tm_accounts[_user].stake  = m_accounts[_user].stake.sub(_amount);\n\t\tm_accounts[_user].locked = m_accounts[_user].locked.add(_amount);\n\t\temit Lock(_user, _amount);\n\t\t/* return true; */\n\t}\n\tfunction unlock(address _user, uint256 _amount) internal /* returns (bool) */\n\t{\n\t\tm_accounts[_user].locked = m_accounts[_user].locked.sub(_amount);\n\t\tm_accounts[_user].stake  = m_accounts[_user].stake.add(_amount);\n\t\temit Unlock(_user, _amount);\n\t\t/* return true; */\n\t}\n}\n",
  "sourcePath": "/home/amxx/Work/iExec/code/PoCo/contracts/Escrow.sol",
  "compiler": {
    "name": "solc",
    "version": "0.5.7+commit.6da8b019.Emscripten.clang"
  },
  "schemaVersion": "3.0.6",
  "updatedAt": "2019-04-05T12:12:17.561Z",
  "devdoc": {
    "methods": {}
  },
  "userdoc": {
    "methods": {
      "constructor": "Constructor",
      "deposit(uint256)": {
        "notice": "Wallet methods: public"
      },
      "viewAccount(address)": {
        "notice": "Accessor"
      }
    }
  }
}