{
  "contractName": "IexecHub",
  "abi": [
    {
      "constant": true,
      "inputs": [
        {
          "name": "_identity",
          "type": "address"
        },
        {
          "name": "_hash",
          "type": "bytes32"
        },
        {
          "name": "_signature",
          "type": "bytes"
        }
      ],
      "name": "verifySignature",
      "outputs": [
        {
          "name": "",
          "type": "bool"
        }
      ],
      "payable": false,
      "stateMutability": "view",
      "type": "function"
    },
    {
      "constant": false,
      "inputs": [
        {
          "name": "name",
          "type": "string"
        },
        {
          "name": "description",
          "type": "string"
        },
        {
          "name": "workClockTimeRef",
          "type": "uint256"
        }
      ],
      "name": "createCategory",
      "outputs": [
        {
          "name": "",
          "type": "uint256"
        }
      ],
      "payable": false,
      "stateMutability": "nonpayable",
      "type": "function"
    },
    {
      "constant": true,
      "inputs": [],
      "name": "appregistry",
      "outputs": [
        {
          "name": "",
          "type": "address"
        }
      ],
      "payable": false,
      "stateMutability": "view",
      "type": "function"
    },
    {
      "constant": true,
      "inputs": [],
      "name": "CONSENSUS_DURATION_RATIO",
      "outputs": [
        {
          "name": "",
          "type": "uint256"
        }
      ],
      "payable": false,
      "stateMutability": "view",
      "type": "function"
    },
    {
      "constant": true,
      "inputs": [
        {
          "name": "_catid",
          "type": "uint256"
        }
      ],
      "name": "viewCategory",
      "outputs": [
        {
          "components": [
            {
              "name": "name",
              "type": "string"
            },
            {
              "name": "description",
              "type": "string"
            },
            {
              "name": "workClockTimeRef",
              "type": "uint256"
            }
          ],
          "name": "category",
          "type": "tuple"
        }
      ],
      "payable": false,
      "stateMutability": "view",
      "type": "function"
    },
    {
      "constant": true,
      "inputs": [],
      "name": "REVEAL_DEADLINE_RATIO",
      "outputs": [
        {
          "name": "",
          "type": "uint256"
        }
      ],
      "payable": false,
      "stateMutability": "view",
      "type": "function"
    },
    {
      "constant": false,
      "inputs": [],
      "name": "renounceOwnership",
      "outputs": [],
      "payable": false,
      "stateMutability": "nonpayable",
      "type": "function"
    },
    {
      "constant": true,
      "inputs": [],
      "name": "CONTRIBUTION_DEADLINE_RATIO",
      "outputs": [
        {
          "name": "",
          "type": "uint256"
        }
      ],
      "payable": false,
      "stateMutability": "view",
      "type": "function"
    },
    {
      "constant": true,
      "inputs": [],
      "name": "owner",
      "outputs": [
        {
          "name": "",
          "type": "address"
        }
      ],
      "payable": false,
      "stateMutability": "view",
      "type": "function"
    },
    {
      "constant": true,
      "inputs": [],
      "name": "isOwner",
      "outputs": [
        {
          "name": "",
          "type": "bool"
        }
      ],
      "payable": false,
      "stateMutability": "view",
      "type": "function"
    },
    {
      "constant": true,
      "inputs": [],
      "name": "workerpoolregistry",
      "outputs": [
        {
          "name": "",
          "type": "address"
        }
      ],
      "payable": false,
      "stateMutability": "view",
      "type": "function"
    },
    {
      "constant": true,
      "inputs": [],
      "name": "FINAL_DEADLINE_RATIO",
      "outputs": [
        {
          "name": "",
          "type": "uint256"
        }
      ],
      "payable": false,
      "stateMutability": "view",
      "type": "function"
    },
    {
      "constant": true,
      "inputs": [],
      "name": "iexecclerk",
      "outputs": [
        {
          "name": "",
          "type": "address"
        }
      ],
      "payable": false,
      "stateMutability": "view",
      "type": "function"
    },
    {
      "constant": true,
      "inputs": [],
      "name": "datasetregistry",
      "outputs": [
        {
          "name": "",
          "type": "address"
        }
      ],
      "payable": false,
      "stateMutability": "view",
      "type": "function"
    },
    {
      "constant": true,
      "inputs": [],
      "name": "countCategory",
      "outputs": [
        {
          "name": "count",
          "type": "uint256"
        }
      ],
      "payable": false,
      "stateMutability": "view",
      "type": "function"
    },
    {
      "constant": true,
      "inputs": [],
      "name": "REVEAL_DURATION_RATIO",
      "outputs": [
        {
          "name": "",
          "type": "uint256"
        }
      ],
      "payable": false,
      "stateMutability": "view",
      "type": "function"
    },
    {
      "constant": false,
      "inputs": [
        {
          "name": "newOwner",
          "type": "address"
        }
      ],
      "name": "transferOwnership",
      "outputs": [],
      "payable": false,
      "stateMutability": "nonpayable",
      "type": "function"
    },
    {
      "inputs": [],
      "payable": false,
      "stateMutability": "nonpayable",
      "type": "constructor"
    },
    {
      "anonymous": false,
      "inputs": [
        {
          "indexed": true,
          "name": "taskid",
          "type": "bytes32"
        },
        {
          "indexed": true,
          "name": "workerpool",
          "type": "address"
        }
      ],
      "name": "TaskInitialize",
      "type": "event"
    },
    {
      "anonymous": false,
      "inputs": [
        {
          "indexed": true,
          "name": "taskid",
          "type": "bytes32"
        },
        {
          "indexed": true,
          "name": "worker",
          "type": "address"
        },
        {
          "indexed": false,
          "name": "hash",
          "type": "bytes32"
        }
      ],
      "name": "TaskContribute",
      "type": "event"
    },
    {
      "anonymous": false,
      "inputs": [
        {
          "indexed": true,
          "name": "taskid",
          "type": "bytes32"
        },
        {
          "indexed": false,
          "name": "consensus",
          "type": "bytes32"
        }
      ],
      "name": "TaskConsensus",
      "type": "event"
    },
    {
      "anonymous": false,
      "inputs": [
        {
          "indexed": true,
          "name": "taskid",
          "type": "bytes32"
        },
        {
          "indexed": true,
          "name": "worker",
          "type": "address"
        },
        {
          "indexed": false,
          "name": "digest",
          "type": "bytes32"
        }
      ],
      "name": "TaskReveal",
      "type": "event"
    },
    {
      "anonymous": false,
      "inputs": [
        {
          "indexed": true,
          "name": "taskid",
          "type": "bytes32"
        }
      ],
      "name": "TaskReopen",
      "type": "event"
    },
    {
      "anonymous": false,
      "inputs": [
        {
          "indexed": true,
          "name": "taskid",
          "type": "bytes32"
        },
        {
          "indexed": false,
          "name": "results",
          "type": "bytes"
        }
      ],
      "name": "TaskFinalize",
      "type": "event"
    },
    {
      "anonymous": false,
      "inputs": [
        {
          "indexed": true,
          "name": "taskid",
          "type": "bytes32"
        }
      ],
      "name": "TaskClaimed",
      "type": "event"
    },
    {
      "anonymous": false,
      "inputs": [
        {
          "indexed": true,
          "name": "worker",
          "type": "address"
        },
        {
          "indexed": true,
          "name": "taskid",
          "type": "bytes32"
        }
      ],
      "name": "AccurateContribution",
      "type": "event"
    },
    {
      "anonymous": false,
      "inputs": [
        {
          "indexed": true,
          "name": "worker",
          "type": "address"
        },
        {
          "indexed": true,
          "name": "taskid",
          "type": "bytes32"
        }
      ],
      "name": "FaultyContribution",
      "type": "event"
    },
    {
      "anonymous": false,
      "inputs": [
        {
          "indexed": false,
          "name": "catid",
          "type": "uint256"
        },
        {
          "indexed": false,
          "name": "name",
          "type": "string"
        },
        {
          "indexed": false,
          "name": "description",
          "type": "string"
        },
        {
          "indexed": false,
          "name": "workClockTimeRef",
          "type": "uint256"
        }
      ],
      "name": "CreateCategory",
      "type": "event"
    },
    {
      "anonymous": false,
      "inputs": [
        {
          "indexed": true,
          "name": "previousOwner",
          "type": "address"
        },
        {
          "indexed": true,
          "name": "newOwner",
          "type": "address"
        }
      ],
      "name": "OwnershipTransferred",
      "type": "event"
    },
    {
      "constant": false,
      "inputs": [
        {
          "name": "_iexecclerkAddress",
          "type": "address"
        },
        {
          "name": "_appregistryAddress",
          "type": "address"
        },
        {
          "name": "_datasetregistryAddress",
          "type": "address"
        },
        {
          "name": "_workerpoolregistryAddress",
          "type": "address"
        }
      ],
      "name": "attachContracts",
      "outputs": [],
      "payable": false,
      "stateMutability": "nonpayable",
      "type": "function"
    },
    {
      "constant": true,
      "inputs": [
        {
          "name": "_taskid",
          "type": "bytes32"
        }
      ],
      "name": "viewTask",
      "outputs": [
        {
          "components": [
            {
              "name": "status",
              "type": "uint8"
            },
            {
              "name": "dealid",
              "type": "bytes32"
            },
            {
              "name": "idx",
              "type": "uint256"
            },
            {
              "name": "timeref",
              "type": "uint256"
            },
            {
              "name": "contributionDeadline",
              "type": "uint256"
            },
            {
              "name": "revealDeadline",
              "type": "uint256"
            },
            {
              "name": "finalDeadline",
              "type": "uint256"
            },
            {
              "name": "consensusValue",
              "type": "bytes32"
            },
            {
              "name": "revealCounter",
              "type": "uint256"
            },
            {
              "name": "winnerCounter",
              "type": "uint256"
            },
            {
              "name": "contributors",
              "type": "address[]"
            },
            {
              "name": "resultDigest",
              "type": "bytes32"
            },
            {
              "name": "results",
              "type": "bytes"
            }
          ],
          "name": "",
          "type": "tuple"
        }
      ],
      "payable": false,
      "stateMutability": "view",
      "type": "function"
    },
    {
      "constant": true,
      "inputs": [
        {
          "name": "_taskid",
          "type": "bytes32"
        },
        {
          "name": "_worker",
          "type": "address"
        }
      ],
      "name": "viewContribution",
      "outputs": [
        {
          "components": [
            {
              "name": "status",
              "type": "uint8"
            },
            {
              "name": "resultHash",
              "type": "bytes32"
            },
            {
              "name": "resultSeal",
              "type": "bytes32"
            },
            {
              "name": "enclaveChallenge",
              "type": "address"
            }
          ],
          "name": "",
          "type": "tuple"
        }
      ],
      "payable": false,
      "stateMutability": "view",
      "type": "function"
    },
    {
      "constant": true,
      "inputs": [
        {
          "name": "_worker",
          "type": "address"
        }
      ],
      "name": "viewScore",
      "outputs": [
        {
          "name": "",
          "type": "uint256"
        }
      ],
      "payable": false,
      "stateMutability": "view",
      "type": "function"
    },
    {
      "constant": true,
      "inputs": [
        {
          "name": "app",
          "type": "address"
        },
        {
          "name": "dataset",
          "type": "address"
        },
        {
          "name": "workerpool",
          "type": "address"
        }
      ],
      "name": "checkResources",
      "outputs": [
        {
          "name": "",
          "type": "bool"
        }
      ],
      "payable": false,
      "stateMutability": "view",
      "type": "function"
    },
    {
      "constant": true,
      "inputs": [
        {
          "name": "id",
          "type": "bytes32"
        }
      ],
      "name": "resultFor",
      "outputs": [
        {
          "name": "",
          "type": "bytes"
        }
      ],
      "payable": false,
      "stateMutability": "view",
      "type": "function"
    },
    {
      "constant": false,
      "inputs": [
        {
          "name": "_dealid",
          "type": "bytes32"
        },
        {
          "name": "idx",
          "type": "uint256"
        }
      ],
      "name": "initialize",
      "outputs": [
        {
          "name": "",
          "type": "bytes32"
        }
      ],
      "payable": false,
      "stateMutability": "nonpayable",
      "type": "function"
    },
    {
      "constant": false,
      "inputs": [
        {
          "name": "_taskid",
          "type": "bytes32"
        },
        {
          "name": "_resultHash",
          "type": "bytes32"
        },
        {
          "name": "_resultSeal",
          "type": "bytes32"
        },
        {
          "name": "_enclaveChallenge",
          "type": "address"
        },
        {
          "name": "_enclaveSign",
          "type": "bytes"
        },
        {
          "name": "_workerpoolSign",
          "type": "bytes"
        }
      ],
      "name": "contribute",
      "outputs": [],
      "payable": false,
      "stateMutability": "nonpayable",
      "type": "function"
    },
    {
      "constant": false,
      "inputs": [
        {
          "name": "_taskid",
          "type": "bytes32"
        },
        {
          "name": "_resultDigest",
          "type": "bytes32"
        }
      ],
      "name": "reveal",
      "outputs": [],
      "payable": false,
      "stateMutability": "nonpayable",
      "type": "function"
    },
    {
      "constant": false,
      "inputs": [
        {
          "name": "_taskid",
          "type": "bytes32"
        }
      ],
      "name": "reopen",
      "outputs": [],
      "payable": false,
      "stateMutability": "nonpayable",
      "type": "function"
    },
    {
      "constant": false,
      "inputs": [
        {
          "name": "_taskid",
          "type": "bytes32"
        },
        {
          "name": "_results",
          "type": "bytes"
        }
      ],
      "name": "finalize",
      "outputs": [],
      "payable": false,
      "stateMutability": "nonpayable",
      "type": "function"
    },
    {
      "constant": false,
      "inputs": [
        {
          "name": "_taskid",
          "type": "bytes32"
        }
      ],
      "name": "claim",
      "outputs": [],
      "payable": false,
      "stateMutability": "nonpayable",
      "type": "function"
    },
    {
      "constant": false,
      "inputs": [
        {
          "name": "_dealid",
          "type": "bytes32[]"
        },
        {
          "name": "_idx",
          "type": "uint256[]"
        }
      ],
      "name": "initializeArray",
      "outputs": [
        {
          "name": "",
          "type": "bool"
        }
      ],
      "payable": false,
      "stateMutability": "nonpayable",
      "type": "function"
    },
    {
      "constant": false,
      "inputs": [
        {
          "name": "_taskid",
          "type": "bytes32[]"
        }
      ],
      "name": "claimArray",
      "outputs": [
        {
          "name": "",
          "type": "bool"
        }
      ],
      "payable": false,
      "stateMutability": "nonpayable",
      "type": "function"
    },
    {
      "constant": false,
      "inputs": [
        {
          "name": "_dealid",
          "type": "bytes32[]"
        },
        {
          "name": "_idx",
          "type": "uint256[]"
        }
      ],
      "name": "initializeAndClaimArray",
      "outputs": [
        {
          "name": "",
          "type": "bool"
        }
      ],
      "payable": false,
      "stateMutability": "nonpayable",
      "type": "function"
    },
    {
      "constant": true,
      "inputs": [
        {
          "name": "_taskid",
          "type": "bytes32"
        }
      ],
      "name": "viewTaskABILegacy",
      "outputs": [
        {
          "name": "",
          "type": "uint8"
        },
        {
          "name": "",
          "type": "bytes32"
        },
        {
          "name": "",
          "type": "uint256"
        },
        {
          "name": "",
          "type": "uint256"
        },
        {
          "name": "",
          "type": "uint256"
        },
        {
          "name": "",
          "type": "uint256"
        },
        {
          "name": "",
          "type": "uint256"
        },
        {
          "name": "",
          "type": "bytes32"
        },
        {
          "name": "",
          "type": "uint256"
        },
        {
          "name": "",
          "type": "uint256"
        },
        {
          "name": "",
          "type": "address[]"
        },
        {
          "name": "",
          "type": "bytes"
        }
      ],
      "payable": false,
      "stateMutability": "view",
      "type": "function"
    },
    {
      "constant": true,
      "inputs": [
        {
          "name": "_taskid",
          "type": "bytes32"
        },
        {
          "name": "_worker",
          "type": "address"
        }
      ],
      "name": "viewContributionABILegacy",
      "outputs": [
        {
          "name": "",
          "type": "uint8"
        },
        {
          "name": "",
          "type": "bytes32"
        },
        {
          "name": "",
          "type": "bytes32"
        },
        {
          "name": "",
          "type": "address"
        }
      ],
      "payable": false,
      "stateMutability": "view",
      "type": "function"
    },
    {
      "constant": true,
      "inputs": [
        {
          "name": "_catid",
          "type": "uint256"
        }
      ],
      "name": "viewCategoryABILegacy",
      "outputs": [
        {
          "name": "",
          "type": "string"
        },
        {
          "name": "",
          "type": "string"
        },
        {
          "name": "",
          "type": "uint256"
        }
      ],
      "payable": false,
      "stateMutability": "view",
      "type": "function"
    }
  ],
  "bytecode": "0x608060405234801561001057600080fd5b5060008054600160a060020a0319163317808255604051600160a060020a039190911691907f8be0079c531659141344cd1fd0a4f28419497f9722a3daafe3b4186f6b6457e0908290a361428f806100696000396000f3fe608060405234801561001057600080fd5b506004361061022e576000357c01000000000000000000000000000000000000000000000000000000009004806390fc26b111610142578063db230b52116100ca578063f6c68e1011610099578063f6c68e1014610469578063f722cb321461047c578063f9353b8d1461048f578063fa055d7e146104b1578063fc334e8c146104c45761022e565b8063db230b5214610423578063e741363b14610436578063e9ebbaf814610355578063f2fde38b146104565761022e565b8063b504681d11610111578063b504681d146103c2578063bd66528a146103d5578063c037f13e146103e8578063c140996f146103fb578063d09cc57e146104035761022e565b806390fc26b114610307578063adccf0d514610392578063b01c6846146103b2578063b1b11d2c146103ba5761022e565b80634704511d116101c5578063715018a611610194578063715018a61461035d5780637b244832146103655780638da5cb5b1461036d5780638f32d59b1461038257806390a0f5461461038a5761022e565b80634704511d1461030f5780634f5f44ec146103225780635b36c66b146103425780635fde601d146103555761022e565b8063298503d911610201578063298503d9146102bd57806334623484146102dd57806345b637a9146102f257806345b99d28146103075761022e565b80630175199814610233578063097d630d1461025c57806311e35aba1461026f578063248ad6a014610292575b600080fd5b61024661024136600461362f565b6104d7565b6040516102539190613e0c565b60405180910390f35b61024661026a366004613581565b61058b565b61028261027d366004613778565b61078d565b6040516102539493929190613f7e565b6102a56102a036600461375a565b610839565b6040516102539c9b9a99989796959493929190613fb3565b6102d06102cb3660046138ef565b610a58565b6040516102539190613e1a565b6102f06102eb3660046137e2565b610b98565b005b6102fa610fb9565b6040516102539190613f70565b6102d0610fc8565b6102f061031d3660046135ce565b610fcd565b61033561033036600461375a565b611051565b60405161025391906140a7565b6102d06103503660046137b2565b6111c5565b6102d061145d565b6102f0611462565b6102d06114ca565b6103756114cf565b6040516102539190613dfe565b6102466114df565b6102fa6114f0565b6103a56103a036600461375a565b6114ff565b60405161025391906140c6565b6102fa6116a3565b6102fa6116b2565b6102466103d03660046136cc565b6116c1565b6102f06103e336600461375a565b61171f565b6102f06103f6366004613899565b6118ef565b6102d0611c7f565b61041661041136600461375a565b611c85565b6040516102539190613f5f565b6102d0610431366004613563565b611d47565b610449610444366004613778565b611d62565b60405161025391906140b8565b6102f0610464366004613563565b611de6565b6102f061047736600461375a565b611e03565b61024661048a3660046136cc565b612061565b6104a261049d36600461375a565b6120a7565b60405161025393929190614073565b6102466104bf36600461368a565b612234565b6102f06104d23660046137b2565b612263565b60006104e48484846123bb565b8061058157506040517f1626ba7e000000000000000000000000000000000000000000000000000000008152600160a060020a03851690631626ba7e906105319086908690600401613ef7565b60206040518083038186803b15801561054957600080fd5b505afa15801561055d573d6000803e3d6000fd5b505050506040513d601f19601f82011682018060405250610581919081019061373c565b90505b9392505050565b6007546040517fc3c5a547000000000000000000000000000000000000000000000000000000008152600091600160a060020a03169063c3c5a547906105d5908790600401613dfe565b60206040518083038186803b1580156105ed57600080fd5b505afa158015610601573d6000803e3d6000fd5b505050506040513d601f19601f82011682018060405250610625919081019061373c565b61062e57600080fd5b600160a060020a03831615806106d857506008546040517fc3c5a547000000000000000000000000000000000000000000000000000000008152600160a060020a039091169063c3c5a54790610688908690600401613dfe565b60206040518083038186803b1580156106a057600080fd5b505afa1580156106b4573d6000803e3d6000fd5b505050506040513d601f19601f820116820180604052506106d8919081019061373c565b6106e157600080fd5b6009546040517fc3c5a547000000000000000000000000000000000000000000000000000000008152600160a060020a039091169063c3c5a5479061072a908590600401613dfe565b60206040518083038186803b15801561074257600080fd5b505afa158015610756573d6000803e3d6000fd5b505050506040513d601f19601f8201168201806040525061077a919081019061373c565b61078357600080fd5b5060019392505050565b60008060008061079b612fa7565b6000878152600b60209081526040808320600160a060020a038a168452909152908190208151608081019092528054829060ff1660038111156107da57fe5b60038111156107e557fe5b815260018201546020808301919091526002830154604080840191909152600390930154600160a060020a0316606092830152835190840151928401519390910151909a9199509197509095509350505050565b600080600080600080600080600080606080610853612fd0565b60008e8152600a60205260409081902081516101a081019092528054829060ff16600481111561087f57fe5b600481111561088a57fe5b8152602001600182015481526020016002820154815260200160038201548152602001600482015481526020016005820154815260200160068201548152602001600782015481526020016008820154815260200160098201548152602001600a820180548060200260200160405190810160405280929190818152602001828054801561094157602002820191906000526020600020905b8154600160a060020a03168152600190910190602001808311610923575b5050509183525050600b820154602080830191909152600c8301805460408051601f600260001961010060018716150201909416939093049283018590048502810185018252828152940193928301828280156109df5780601f106109b4576101008083540402835291602001916109df565b820191906000526020600020905b8154815290600101906020018083116109c257829003601f168201915b5050505050815250509050806000015181602001518260400151836060015184608001518560a001518660c001518760e001518861010001518961012001518a61014001518b61018001518191508090509c509c509c509c509c509c509c509c509c509c509c509c505091939597999b5091939597999b565b6000610a626114df565b610a6b57600080fd5b600060018060405180606001604052808a8a8080601f016020809104026020016040519081016040528093929190818152602001838380828437600092019190915250505090825250604080516020601f8b0181900481028201810190925289815291810191908a908a9081908401838280828437600092018290525093855250505060209182018890528354600181018086559482529082902083518051600390930290910192610b2292849290910190613042565b506020828101518051610b3b9260018501920190613042565b506040820151816002015550500390507f62bf08360c9d561749c54eaf4f8bf8cb6c8b6f4f40607bcec39a8172e714d25c818888888888604051610b84969594939291906140d7565b60405180910390a190505b95945050505050565b6000868152600a60209081526040808320600b8352818420338552909252909120610bc16130c0565b600654600184015460405160e160020a635ba430d9028152600160a060020a039092169163b74861b291610bf791600401613e1a565b60006040518083038186803b158015610c0f57600080fd5b505afa158015610c23573d6000803e3d6000fd5b505050506040513d6000823e601f3d908101601f19168201604052610c4b9190810190613975565b90506001835460ff166004811115610c5f57fe5b14610c6957600080fd5b42836004015411610c7957600080fd5b6000825460ff166003811115610c8b57fe5b14610c9557600080fd5b610cda816040015160200151610cd4338c8a604051602001610cb993929190613d3e565b60405160208183030381529060405280519060200120612490565b866104d7565b610ce357600080fd5b600160a060020a038616151580610d24575060a0810151601f1a7f010000000000000000000000000000000000000000000000000000000000000090810216155b610d2d57600080fd5b600160a060020a0386161580610d5e5750610d5e86610d588a8a604051602001610cb9929190613dac565b876104d7565b610d6757600080fd5b815460ff1916600190811783558083018990556002830188905560038301805473ffffffffffffffffffffffffffffffffffffffff19908116600160a060020a038a811691909117909255600a8601805480850182556000918252602090912001805433921682179055600654928601546040517fe798491a000000000000000000000000000000000000000000000000000000008152939092169263e798491a92610e17929091600401613e43565b600060405180830381600087803b158015610e3157600080fd5b505af1158015610e45573d6000803e3d6000fd5b5050505033600160a060020a0316897f3fdb8d7797562d49a81078dbf7fa1771958ea452f8b13d1148383bd9506aecfb8a604051610e839190613e1a565b60405180910390a3336000908152600c6020526040812054610ed190600190610ec590600390610eb9908263ffffffff6124c016565b9063ffffffff6124e216565b9063ffffffff6124f916565b60008b8152600e602090815260408083208d8452909152812054919250610f1382610ec585610f0783600163ffffffff6124e216565b9063ffffffff61250e16565b9050610f1e83612535565b60008d8152600d602090815260408083203384528252808320939093558e8252600e81528282208e835290522054610f5c908263ffffffff61273816565b60008d8152600e602090815260408083208f84528252808320939093558e8252600f90522054610f92908263ffffffff61273816565b60008d8152600f6020526040902055610fab8c8c61274a565b505050505050505050505050565b600754600160a060020a031681565b600a81565b610fd56114df565b610fde57600080fd5b600654600160a060020a031615610ff457600080fd5b60068054600160a060020a0395861673ffffffffffffffffffffffffffffffffffffffff19918216179091556007805494861694821694909417909355600880549285169284169290921790915560098054919093169116179055565b611059613166565b6001828154811061106657fe5b600091825260209182902060408051600393909302909101805460026001821615610100026000190190911604601f81018590049094028301608090810190925260608301848152929390928492909184918401828280156111095780601f106110de57610100808354040283529160200191611109565b820191906000526020600020905b8154815290600101906020018083116110ec57829003601f168201915b50505050508152602001600182018054600181600116156101000203166002900480601f0160208091040260200160405190810160405280929190818152602001828054600181600116156101000203166002900480156111ab5780601f10611180576101008083540402835291602001916111ab565b820191906000526020600020905b81548152906001019060200180831161118e57829003601f168201915b505050505081526020016002820154815250509050919050565b60006111cf6130c0565b60065460405160e160020a635ba430d9028152600160a060020a039091169063b74861b290611202908790600401613e1a565b60006040518083038186803b15801561121a57600080fd5b505afa15801561122e573d6000803e3d6000fd5b505050506040513d6000823e601f3d908101601f191682016040526112569190810190613975565b905080610160015183101561126a57600080fd5b6101808101516101608201516112859163ffffffff61273816565b831061129057600080fd5b600084846040516020016112a5929190613dac565b60408051601f1981840301815291815281516020928301206000818152600a90935290822090925090815460ff1660048111156112de57fe5b146112e857600080fd5b805460ff1916600190811782558082018790556002820186905560808401518154811061131157fe5b600091825260209091206003918202016002015490820181905561014084015161134c9161134090600761250e565b9063ffffffff61273816565b60048201556101408301516003820154611372919061134090600a63ffffffff61250e16565b6006808301919091556000838152600f602052604090819020600190559054905160e160020a635ba430d9028152600160a060020a039091169063b74861b2906113c0908990600401613e1a565b60006040518083038186803b1580156113d857600080fd5b505afa1580156113ec573d6000803e3d6000fd5b505050506040513d6000823e601f3d908101601f191682016040526114149190810190613975565b6040015160000151600160a060020a0316827f252992fb0468d68d6a5784ec03214f0d0a362083f2d7ebd157af43b017a22e0660405160405180910390a3509150505b92915050565b600281565b61146a6114df565b61147357600080fd5b60008054604051600160a060020a03909116907f8be0079c531659141344cd1fd0a4f28419497f9722a3daafe3b4186f6b6457e0908390a36000805473ffffffffffffffffffffffffffffffffffffffff19169055565b600781565b600054600160a060020a03165b90565b600054600160a060020a0316331490565b600954600160a060020a031681565b611507612fd0565b6000828152600a60205260409081902081516101a081019092528054829060ff16600481111561153357fe5b600481111561153e57fe5b8152602001600182015481526020016002820154815260200160038201548152602001600482015481526020016005820154815260200160068201548152602001600782015481526020016008820154815260200160098201548152602001600a82018054806020026020016040519081016040528092919081815260200182805480156115f557602002820191906000526020600020905b8154600160a060020a031681526001909101906020018083116115d7575b5050509183525050600b820154602080830191909152600c8301805460408051601f600260001961010060018716150201909416939093049283018590048502810185018252828152940193928301828280156116935780601f1061166857610100808354040283529160200191611693565b820191906000526020600020905b81548152906001019060200180831161167657829003601f168201915b5050505050815250509050919050565b600654600160a060020a031681565b600854600160a060020a031681565b60008382146116cf57600080fd5b60005b84811015611711576117088686838181106116e957fe5b905060200201358585848181106116fc57fe5b905060200201356111c5565b506001016116d2565b50600190505b949350505050565b6000818152600a602052604090206001815460ff16600481111561173f57fe5b148061175a57506002815460ff16600481111561175857fe5b145b61176357600080fd5b428160060154111561177457600080fd5b805460ff19166004908117825560065460018301546040517f51a0942f000000000000000000000000000000000000000000000000000000008152600160a060020a03909216926351a0942f926117ce9291879101613ebb565b600060405180830381600087803b1580156117e857600080fd5b505af11580156117fc573d6000803e3d6000fd5b506000925050505b600a8201548110156118bf57600082600a01828154811061182157fe5b60009182526020909120015460065460018501546040517f6eb528b5000000000000000000000000000000000000000000000000000000008152600160a060020a0393841694509290911691636eb528b591611881918590600401613e28565b600060405180830381600087803b15801561189b57600080fd5b505af11580156118af573d6000803e3d6000fd5b5050505050806001019050611804565b5060405182907fcbc308b5f91040d2659a5201858344b0b583cd2f9e18e8470c2fa052c5b21ff890600090a25050565b6006546000848152600a60205260409081902060010154905160e160020a635ba430d90281528592600160a060020a03169163b74861b2916119349190600401613e1a565b60006040518083038186803b15801561194c57600080fd5b505afa158015611960573d6000803e3d6000fd5b505050506040513d6000823e601f3d908101601f191682016040526119889190810190613975565b6040015160200151600160a060020a031633600160a060020a0316146119ad57600080fd5b6000848152600a602052604090206002815460ff1660048111156119cd57fe5b146119d757600080fd5b428160060154116119e757600080fd5b806009015481600801541480611a10575060008160080154118015611a10575042816005015411155b611a1957600080fd5b805460ff19166003178155611a32600c82018585613187565b5060065460018201546040517f70c4c277000000000000000000000000000000000000000000000000000000008152600160a060020a03909216916370c4c27791611a81918990600401613ebb565b600060405180830381600087803b158015611a9b57600080fd5b505af1158015611aaf573d6000803e3d6000fd5b50505050611abc85612987565b847f78ce8a8bc0fcb704e8ba3b3dbb36aa88002df8038128b4af2f27ef65db6650448585604051611aee929190613f4d565b60405180910390a2600654600182015460405160e160020a635ba430d9028152600092600160a060020a03169163b74861b291611b2e9190600401613e1a565b60006040518083038186803b158015611b4657600080fd5b505afa158015611b5a573d6000803e3d6000fd5b505050506040513d6000823e601f3d908101601f19168201604052611b829190810190613975565b61010001519050600160a060020a03811615611c7757620186a05a11611ba757600080fd5b600081600160a060020a0316620186a0888888604051602401611bcc93929190613ed6565b60408051601f198184030181529181526020820180517bffffffffffffffffffffffffffffffffffffffffffffffffffffffff167f5dd808550000000000000000000000000000000000000000000000000000000017905251611c2f9190613dd2565b60006040518083038160008787f1925050503d8060008114611c6d576040519150601f19603f3d011682016040523d82523d6000602084013e611c72565b606091505b505050505b505050505050565b60015490565b6000818152600a602052604090206060906003815460ff166004811115611ca857fe5b14611cb257600080fd5b600c8101805460408051602060026001851615610100026000190190941693909304601f81018490048402820184019092528181529291830182828015611d3a5780601f10611d0f57610100808354040283529160200191611d3a565b820191906000526020600020905b815481529060010190602001808311611d1d57829003601f168201915b5050505050915050919050565b600160a060020a03166000908152600c602052604090205490565b611d6a612fa7565b6000838152600b60209081526040808320600160a060020a0386168452909152908190208151608081019092528054829060ff166003811115611da957fe5b6003811115611db457fe5b81526001820154602082015260028201546040820152600390910154600160a060020a03166060909101529392505050565b611dee6114df565b611df757600080fd5b611e0081612f0d565b50565b6006546000828152600a60205260409081902060010154905160e160020a635ba430d90281528392600160a060020a03169163b74861b291611e489190600401613e1a565b60006040518083038186803b158015611e6057600080fd5b505afa158015611e74573d6000803e3d6000fd5b505050506040513d6000823e601f3d908101601f19168201604052611e9c9190810190613975565b6040015160200151600160a060020a031633600160a060020a031614611ec157600080fd5b6000828152600a602052604090206002815460ff166004811115611ee157fe5b14611eeb57600080fd5b42816006015411611efb57600080fd5b42816005015411158015611f1157506008810154155b611f1a57600080fd5b60005b600a820154811015611fb357600082600a018281548110611f3a57fe5b60009182526020808320909101546007860154888452600b83526040808520600160a060020a039093168086529290935291909220600101549192501415611faa576000858152600b60209081526040808320600160a060020a03851684529091529020805460ff191660031790555b50600101611f1d565b506000838152600e6020908152604080832060078501548452825280832054868452600f90925290912054611fed9163ffffffff6124f916565b6000848152600f6020908152604080832093909355600e815282822060078501805484529152828220829055835460ff191660011784558190556005830181905560098301819055905184917f3afe0f24796ce653c6ab1f3e7aba5ce564eece5e82aee724aff28253e829f07b91a2505050565b600083821461206f57600080fd5b60005b848110156117115761209f6103e387878481811061208c57fe5b905060200201358686858181106116fc57fe5b600101612072565b60608060006120b4613166565b600185815481106120c157fe5b600091825260209182902060408051600393909302909101805460026001821615610100026000190190911604601f81018590049094028301608090810190925260608301848152929390928492909184918401828280156121645780601f1061213957610100808354040283529160200191612164565b820191906000526020600020905b81548152906001019060200180831161214757829003601f168201915b50505050508152602001600182018054600181600116156101000203166002900480601f0160208091040260200160405190810160405280929190818152602001828054600181600116156101000203166002900480156122065780601f106121db57610100808354040283529160200191612206565b820191906000526020600020905b8154815290600101906020018083116121e957829003601f168201915b5050509183525050600291909101546020918201528151908201516040909201519097919650945092505050565b6000805b828110156107835761225b84848381811061224f57fe5b9050602002013561171f565b600101612238565b6000828152600a60209081526040808320600b83528184203385529092529091206002825460ff16600481111561229657fe5b146122a057600080fd5b428260050154116122b057600080fd5b6001815460ff1660038111156122c257fe5b146122cc57600080fd5b81600701548160010154146122e057600080fd5b83836040516020016122f3929190613dac565b6040516020818303038152906040528051906020012081600101541461231857600080fd5b33848460405160200161232d93929190613d75565b6040516020818303038152906040528051906020012081600201541461235257600080fd5b805460ff19166002178155600882015461236d906001612738565b6008830155600b8201839055604051339085907f4b1763d473ac8fa80b4432ba90047e1b92444d8fabc55e6a002d9b1a316d7959906123ad908790613e1a565b60405180910390a350505050565b60008060008084516041146123d65760009350505050610584565b50505060208201516040830151606084015160001a601b8110156123f857601b015b8060ff16601b1415801561241057508060ff16601c14155b156124215760009350505050610584565b600186828585604051600081526020016040526040516124449493929190613f32565b6020604051602081039080840390855afa158015612466573d6000803e3d6000fd5b50505060206040510351600160a060020a031687600160a060020a03161493505050509392505050565b6000816040516020016124a39190613dde565b604051602081830303815290604052805190602001209050919050565b60008082116124ce57600080fd5b60008284816124d957fe5b04949350505050565b6000818310156124f25781610584565b5090919050565b60008282111561250857600080fd5b50900390565b60008261251d57506000611457565b8282028284828161252a57fe5b041461058457600080fd5b604080517ff8f9cbfae6cc78fbefe7cdc3a1793dfcf4f0e8bbd8cec470b6a28a7a5a3e1efd81527ff5ecf1b3e9debc68e1d9cfabc5997135bfb7a7a3938b7b606b5b4b3f2f1f0ffe60208201527ff6e4ed9ff2d6b458eadcdf97bd91692de2d4da8fd2d0ac50c6ae9a8272523616818301527fc8c0b887b0a8a4489c948c7f847c6125746c645c544c444038302820181008ff60608201527ff7cae577eec2a03cf3bad76fb589591debb2dd67e0aa9834bea6925f6a4a2e0e60808201527fe39ed557db96902cd38ed14fad815115c786af479b7e8324736353433727170760a08201527fc976c13bb96e881cb166a933a55e490d9d56952b8d4e801485467d236242260660c08201527f753a6d1b65325d0c552a4d1345224105391a310b29122104190a11030902010060e08201526101008082019092527f0100000000000000000000000000000000000000000000000000000000000000600170010000000000000000000000000000000068010000000000000000640100000000620100006010600460026000198c019081041790810417908104178881041790810417908104179081041790810417017e818283848586878898a8b8c8d8e8f929395969799a9b9d9e9faaeb6bedeeff0281900460ff0390910151047f8000000000000000000000000000000000000000000000000000000000000000909211020190565b60008282018381101561058457600080fd5b6006546000838152600a602052604080822060010154905160e160020a635ba430d90281529192600160a060020a03169163b74861b29161278d91600401613e1a565b60006040518083038186803b1580156127a557600080fd5b505afa1580156127b9573d6000803e3d6000fd5b505050506040513d6000823e601f3d908101601f191682016040526127e19190810190613975565b6060015190506128166127fb82600163ffffffff6124f916565b6000858152600f60205260409020549063ffffffff61250e16565b6000848152600e60209081526040808320868452909152902054612840908363ffffffff61250e16565b1115612982576000838152600a6020526040812090805b600a83015481101561290957600083600a01828154811061287457fe5b6000918252602080832090910154898352600b82526040808420600160a060020a0390921680855291909252912060010154909150861480156128e7575060016000888152600b60209081526040808320600160a060020a038616845290915290205460ff1660038111156128e557fe5b145b15612900576128fd83600163ffffffff61273816565b92505b50600101612857565b50815460ff1916600290811783556007830185905560038301546129329142916113409161250e565b6005830155600060088301556009820181905560405185907ff6d49bf3e05d33a4bc497d3c793fb5756388bb96b947cf51bb60aaecb0e022e390612977908790613e1a565b60405180910390a250505b505050565b6000818152600a6020526040902061299d6130c0565b600654600183015460405160e160020a635ba430d9028152600160a060020a039092169163b74861b2916129d391600401613e1a565b60006040518083038186803b1580156129eb57600080fd5b505afa1580156129ff573d6000803e3d6000fd5b505050506040513d6000823e601f3d908101601f19168201604052612a279190810190613975565b600654600184015460405160e160020a635ba430d9028152929350600092839283928392600160a060020a039092169163b74861b291612a6991600401613e1a565b60006040518083038186803b158015612a8157600080fd5b505afa158015612a95573d6000803e3d6000fd5b505050506040513d6000823e601f3d908101601f19168201604052612abd9190810190613975565b60400151604001519050600093505b600a860154841015612b975785600a018481548110612ae757fe5b600091825260209091200154600160a060020a0316925060026000888152600b60209081526040808320600160a060020a038816845290915290205460ff166003811115612b3157fe5b1415612b72576000878152600d60209081526040808320600160a060020a0387168452909152902054612b6b90839063ffffffff61273816565b9150612b8c565b6101a0850151612b8990829063ffffffff61273816565b90505b836001019350612acc565b60008211612ba457600080fd5b6000612bcf612bc2876101c0015160646124f990919063ffffffff16565b839063ffffffff612f8816565b9050600094505b600a870154851015612e8f5786600a018581548110612bf157fe5b600091825260209091200154600160a060020a0316935060026000898152600b60209081526040808320600160a060020a038916845290915290205460ff166003811115612c3b57fe5b1415612d91576000888152600d60209081526040808320600160a060020a0388168452909152812054612c769083908663ffffffff612f9216565b9050612c88838263ffffffff6124f916565b60065460018a01546040517fa3f0ec58000000000000000000000000000000000000000000000000000000008152929550600160a060020a039091169163a3f0ec5891612cdd91899086908f90600401613e86565b600060405180830381600087803b158015612cf757600080fd5b505af1158015612d0b573d6000803e3d6000fd5b50505050600a88015460011015612d8b57600160a060020a0385166000908152600c6020526040902054612d4690600163ffffffff61273816565b600160a060020a0386166000818152600c60205260408082209390935591518b927f9703f4589802246c80b822e63697180da799e363cd1b6fd9465a5e5574d5349291a35b50612e84565b60065460018801546040517f9f0c9d6e000000000000000000000000000000000000000000000000000000008152600160a060020a0390921691639f0c9d6e91612de19188908d90600401613e5e565b600060405180830381600087803b158015612dfb57600080fd5b505af1158015612e0f573d6000803e3d6000fd5b505050600160a060020a0385166000908152600c6020526040902054612e3f91506002600363ffffffff612f9216565b600160a060020a0385166000818152600c60205260408082209390935591518a927ff868788948d55240774fdbad06555105ef20bbc70d1b7eccda982b65e11e79bb91a35b846001019450612bd6565b60065460018801546040517fa1f3496c000000000000000000000000000000000000000000000000000000008152600160a060020a039092169163a1f3496c91612edf9186908d90600401613f17565b600060405180830381600087803b158015612ef957600080fd5b505af1158015610fab573d6000803e3d6000fd5b600160a060020a038116612f2057600080fd5b60008054604051600160a060020a03808516939216917f8be0079c531659141344cd1fd0a4f28419497f9722a3daafe3b4186f6b6457e091a36000805473ffffffffffffffffffffffffffffffffffffffff1916600160a060020a0392909216919091179055565b6000610584838360645b6000610581612fa1858561250e565b836124c0565b604080516080810190915280600081526000602082018190526040820181905260609091015290565b604080516101a0810190915280600081526020016000801916815260200160008152602001600081526020016000815260200160008152602001600081526020016000801916815260200160008152602001600081526020016060815260200160008019168152602001606081525090565b828054600181600116156101000203166002900490600052602060002090601f016020900481019282601f1061308357805160ff19168380011785556130b0565b828001600101855582156130b0579182015b828111156130b0578251825591602001919060010190613095565b506130bc9291506131f5565b5090565b604051806102a001604052806130d461320f565b81526020016130e161320f565b81526020016130ee61320f565b81526020016000815260200160008152602001600080191681526020016000600160a060020a031681526020016000600160a060020a031681526020016000600160a060020a031681526020016060815260200160008152602001600081526020016000815260200160008152602001600081525090565b60405180606001604052806060815260200160608152602001600081525090565b828054600181600116156101000203166002900490600052602060002090601f016020900481019282601f106131c85782800160ff198235161785556130b0565b828001600101855582156130b0579182015b828111156130b05782358255916020019190600101906131da565b6114dc91905b808211156130bc57600081556001016131fb565b604080516060810182526000808252602082018190529181019190915290565b6000610584823561418e565b6000610584825161418e565b60008083601f84011261325957600080fd5b50813567ffffffffffffffff81111561327157600080fd5b60208301915083602082028301111561328957600080fd5b9250929050565b60006105848251614199565b600061058482356114dc565b600061058482516114dc565b60008083601f8401126132c657600080fd5b50813567ffffffffffffffff8111156132de57600080fd5b60208301915083600182028301111561328957600080fd5b600082601f83011261330757600080fd5b813561331a6133158261414e565b614127565b9150808252602083016020830185838301111561333657600080fd5b6133418382846141f0565b50505092915050565b600082601f83011261335b57600080fd5b81516133696133158261414e565b9150808252602083016020830185838301111561338557600080fd5b6133418382846141fc565b60006102a082840312156133a357600080fd5b6133ae6101e0614127565b905060006133bc8484613508565b82525060606133cd84848301613508565b60208301525060c06133e184828501613508565b6040830152506101206133f6848285016132a8565b60608301525061014061340b848285016132a8565b608083015250610160613420848285016132a8565b60a0830152506101806134358482850161323b565b60c0830152506101a061344a8482850161323b565b60e0830152506101c061345f8482850161323b565b610100830152506101e082015167ffffffffffffffff81111561348157600080fd5b61348d8482850161334a565b610120830152506102006134a3848285016132a8565b610140830152506102206134b9848285016132a8565b610160830152506102406134cf848285016132a8565b610180830152506102606134e5848285016132a8565b6101a0830152506102806134fb848285016132a8565b6101c08301525092915050565b60006060828403121561351a57600080fd5b6135246060614127565b90506000613532848461323b565b82525060206135438484830161323b565b6020830152506040613557848285016132a8565b60408301525092915050565b60006020828403121561357557600080fd5b6000611717848461322f565b60008060006060848603121561359657600080fd5b60006135a2868661322f565b93505060206135b38682870161322f565b92505060406135c48682870161322f565b9150509250925092565b600080600080608085870312156135e457600080fd5b60006135f0878761322f565b94505060206136018782880161322f565b93505060406136128782880161322f565b92505060606136238782880161322f565b91505092959194509250565b60008060006060848603121561364457600080fd5b6000613650868661322f565b93505060206136618682870161329c565b925050604084013567ffffffffffffffff81111561367e57600080fd5b6135c4868287016132f6565b6000806020838503121561369d57600080fd5b823567ffffffffffffffff8111156136b457600080fd5b6136c085828601613247565b92509250509250929050565b600080600080604085870312156136e257600080fd5b843567ffffffffffffffff8111156136f957600080fd5b61370587828801613247565b9450945050602085013567ffffffffffffffff81111561372457600080fd5b61373087828801613247565b95989497509550505050565b60006020828403121561374e57600080fd5b60006117178484613290565b60006020828403121561376c57600080fd5b6000611717848461329c565b6000806040838503121561378b57600080fd5b6000613797858561329c565b92505060206137a88582860161322f565b9150509250929050565b600080604083850312156137c557600080fd5b60006137d1858561329c565b92505060206137a88582860161329c565b60008060008060008060c087890312156137fb57600080fd5b6000613807898961329c565b965050602061381889828a0161329c565b955050604061382989828a0161329c565b945050606061383a89828a0161322f565b935050608087013567ffffffffffffffff81111561385757600080fd5b61386389828a016132f6565b92505060a087013567ffffffffffffffff81111561388057600080fd5b61388c89828a016132f6565b9150509295509295509295565b6000806000604084860312156138ae57600080fd5b60006138ba868661329c565b935050602084013567ffffffffffffffff8111156138d757600080fd5b6138e3868287016132b4565b92509250509250925092565b60008060008060006060868803121561390757600080fd5b853567ffffffffffffffff81111561391e57600080fd5b61392a888289016132b4565b9550955050602086013567ffffffffffffffff81111561394957600080fd5b613955888289016132b4565b935093505060406139688882890161329c565b9150509295509295909350565b60006020828403121561398757600080fd5b815167ffffffffffffffff81111561399e57600080fd5b61171784828501613390565b60006139b683836139de565b505060200190565b6139c7816141c8565b82525050565b6139c76139d98261418e565b614228565b6139c78161418e565b60006139f28261417c565b6139fc8185614180565b9350613a0783614176565b60005b82811015613a3257613a1d8683516139aa565b9550613a2882614176565b9150600101613a0a565b5093949350505050565b6000613a478261417c565b613a518185614180565b9350613a5c83614176565b60005b82811015613a3257613a728683516139aa565b9550613a7d82614176565b9150600101613a5f565b6139c781614199565b6139c7816114dc565b6139c7613aa5826114dc565b6114dc565b6000613ab68385614180565b9350613ac38385846141f0565b613acc83614239565b9093019392505050565b6000613ae18261417c565b613aeb8185614180565b9350613afb8185602086016141fc565b613acc81614239565b6000613b0f8261417c565b613b198185614189565b9350613b298185602086016141fc565b9290920192915050565b6139c7816141cf565b6139c7816141da565b6139c7816141e5565b6000613b5b601c83614189565b7f19457468657265756d205369676e6564204d6573736167653a0a3332000000008152601c0192915050565b8051606080845260009190840190613b9f8282613ad6565b91505060208301518482036020860152613bb98282613ad6565b9150506040830151613bce6040860182613a90565b509392505050565b80516080830190613be78482613b3c565b506020820151613bfa6020850182613a90565b506040820151613c0d6040850182613a90565b506060820151613c2060608501826139de565b50505050565b80516000906101a0840190613c3b8582613b45565b506020830151613c4e6020860182613a90565b506040830151613c616040860182613a90565b506060830151613c746060860182613a90565b506080830151613c876080860182613a90565b5060a0830151613c9a60a0860182613a90565b5060c0830151613cad60c0860182613a90565b5060e0830151613cc060e0860182613a90565b50610100830151613cd5610100860182613a90565b50610120830151613cea610120860182613a90565b50610140830151848203610140860152613d048282613a3c565b915050610160830151613d1b610160860182613a90565b50610180830151848203610180860152610b8f8282613ad6565b6139c7816141c2565b6000613d4a82866139cd565b601482019150613d5a8285613a99565b602082019150613d6a82846139cd565b506014019392505050565b6000613d8182866139cd565b601482019150613d918285613a99565b602082019150613da18284613a99565b506020019392505050565b6000613db88285613a99565b602082019150613dc88284613a99565b5060200192915050565b60006105848284613b04565b6000613de982613b4e565b9150613df58284613a99565b50602001919050565b6020810161145782846139de565b602081016114578284613a87565b602081016114578284613a90565b60408101613e368285613a90565b61058460208301846139de565b60408101613e518285613a90565b61058460208301846139be565b60608101613e6c8286613a90565b613e7960208301856139de565b6117176040830184613a90565b60808101613e948287613a90565b613ea160208301866139de565b613eae6040830185613a90565b610b8f6060830184613a90565b60408101613ec98285613a90565b6105846020830184613a90565b60408101613ee48286613a90565b8181036020830152610b8f818486613aaa565b60408101613f058285613a90565b81810360208301526105818184613ad6565b60608101613f258286613a90565b613e796020830185613a90565b60808101613f408287613a90565b613ea16020830186613d35565b60208082528101610581818486613aaa565b602080825281016105848184613ad6565b602081016114578284613b33565b60808101613f8c8287613b3c565b613f996020830186613a90565b613fa66040830185613a90565b610b8f60608301846139de565b6101808101613fc2828f613b45565b613fcf602083018e613a90565b613fdc604083018d613a90565b613fe9606083018c613a90565b613ff6608083018b613a90565b61400360a083018a613a90565b61401060c0830189613a90565b61401d60e0830188613a90565b61402b610100830187613a90565b614039610120830186613a90565b81810361014083015261404c81856139e7565b90508181036101608301526140618184613ad6565b9e9d5050505050505050505050505050565b606080825281016140848186613ad6565b905081810360208301526140988185613ad6565b90506117176040830184613a90565b602080825281016105848184613b87565b608081016114578284613bd6565b602080825281016105848184613c26565b608081016140e58289613a90565b81810360208301526140f8818789613aaa565b9050818103604083015261410d818587613aaa565b905061411c6060830184613a90565b979650505050505050565b60405181810167ffffffffffffffff8111828210171561414657600080fd5b604052919050565b600067ffffffffffffffff82111561416557600080fd5b506020601f91909101601f19160190565b60200190565b5190565b90815260200190565b919050565b6000611457826141b6565b151590565b6000600482106130bc57fe5b6000600582106130bc57fe5b600160a060020a031690565b60ff1690565b6000611457825b60006114578261418e565b60006114578261419e565b6000611457826141aa565b82818337506000910152565b60005b838110156142175781810151838201526020016141ff565b83811115613c205750506000910152565b600061145782600061145782614243565b601f01601f191690565b6c01000000000000000000000000029056fea265627a7a72305820d76ce8a98fb29e76afc06b4bdbe45e935296362e0e4d0ff0995dc9d6951db2916c6578706572696d656e74616cf50037",
  "source": "pragma solidity ^0.5.7;\npragma experimental ABIEncoderV2;\n\nimport \"../node_modules/iexec-solidity/contracts/ERC1154_OracleInterface/IERC1154.sol\";\nimport \"../node_modules/iexec-solidity/contracts/Libs/SafeMath.sol\";\n\nimport \"./libs/IexecODBLibCore.sol\";\nimport \"./registries/RegistryBase.sol\";\nimport \"./CategoryManager.sol\";\nimport \"./SignatureVerifier.sol\";\nimport \"./IexecClerk.sol\";\n\n/**\n * /!\\ TEMPORARY LEGACY /!\\\n */\nimport \"./IexecHubABILegacy.sol\";\n\ncontract IexecHub is CategoryManager, IOracle, SignatureVerifier, IexecHubABILegacy\n{\n\tusing SafeMath for uint256;\n\n\t/***************************************************************************\n\t *                                Constants                                *\n\t ***************************************************************************/\n\tuint256 public constant CONTRIBUTION_DEADLINE_RATIO = 7;\n\tuint256 public constant       REVEAL_DEADLINE_RATIO = 2;\n\tuint256 public constant        FINAL_DEADLINE_RATIO = 10;\n\n\t/***************************************************************************\n\t *                             Other contracts                             *\n\t ***************************************************************************/\n\tIexecClerk   public iexecclerk;\n\tRegistryBase public appregistry;\n\tRegistryBase public datasetregistry;\n\tRegistryBase public workerpoolregistry;\n\n\t/***************************************************************************\n\t *                          Consensuses & Workers                          *\n\t ***************************************************************************/\n\tmapping(bytes32 =>                    IexecODBLibCore.Task         ) m_tasks;\n\tmapping(bytes32 => mapping(address => IexecODBLibCore.Contribution)) m_contributions;\n\tmapping(address =>                    uint256                      ) m_workerScores;\n\n\tmapping(bytes32 => mapping(address => uint256                     )) m_logweight;\n\tmapping(bytes32 => mapping(bytes32 => uint256                     )) m_groupweight;\n\tmapping(bytes32 =>                    uint256                      ) m_totalweight;\n\n\t/***************************************************************************\n\t *                                 Events                                  *\n\t ***************************************************************************/\n\tevent TaskInitialize(bytes32 indexed taskid, address indexed workerpool               );\n\tevent TaskContribute(bytes32 indexed taskid, address indexed worker, bytes32 hash     );\n\tevent TaskConsensus (bytes32 indexed taskid,                         bytes32 consensus);\n\tevent TaskReveal    (bytes32 indexed taskid, address indexed worker, bytes32 digest   );\n\tevent TaskReopen    (bytes32 indexed taskid                                           );\n\tevent TaskFinalize  (bytes32 indexed taskid,                         bytes results    );\n\tevent TaskClaimed   (bytes32 indexed taskid                                           );\n\n\tevent AccurateContribution(address indexed worker, bytes32 indexed taskid);\n\tevent FaultyContribution  (address indexed worker, bytes32 indexed taskid);\n\n\t/***************************************************************************\n\t *                                Modifiers                                *\n\t ***************************************************************************/\n\tmodifier onlyScheduler(bytes32 _taskid)\n\t{\n\t\trequire(msg.sender == iexecclerk.viewDeal(m_tasks[_taskid].dealid).workerpool.owner);\n\t\t_;\n\t}\n\n\t/***************************************************************************\n\t *                               Constructor                               *\n\t ***************************************************************************/\n\tconstructor()\n\tpublic\n\t{\n\t}\n\n\tfunction attachContracts(\n\t\taddress _iexecclerkAddress,\n\t\taddress _appregistryAddress,\n\t\taddress _datasetregistryAddress,\n\t\taddress _workerpoolregistryAddress)\n\texternal onlyOwner\n\t{\n\t\trequire(address(iexecclerk) == address(0));\n\t\tiexecclerk         = IexecClerk  (_iexecclerkAddress  );\n\t\tappregistry        = RegistryBase(_appregistryAddress);\n\t\tdatasetregistry    = RegistryBase(_datasetregistryAddress);\n\t\tworkerpoolregistry = RegistryBase(_workerpoolregistryAddress);\n\t}\n\n\t/***************************************************************************\n\t *                                Accessors                                *\n\t ***************************************************************************/\n\tfunction viewTask(bytes32 _taskid)\n\texternal view returns (IexecODBLibCore.Task memory)\n\t{\n\t\treturn m_tasks[_taskid];\n\t}\n\n\tfunction viewContribution(bytes32 _taskid, address _worker)\n\texternal view returns (IexecODBLibCore.Contribution memory)\n\t{\n\t\treturn m_contributions[_taskid][_worker];\n\t}\n\n\tfunction viewScore(address _worker)\n\texternal view returns (uint256)\n\t{\n\t\treturn m_workerScores[_worker];\n\t}\n\n\tfunction checkResources(address app, address dataset, address workerpool)\n\texternal view returns (bool)\n\t{\n\t\trequire(                         appregistry.isRegistered(app));\n\t\trequire(dataset == address(0) || datasetregistry.isRegistered(dataset));\n\t\trequire(                         workerpoolregistry.isRegistered(workerpool));\n\t\treturn true;\n\t}\n\n\t/***************************************************************************\n\t *                         EIP 1154 PULL INTERFACE                         *\n\t ***************************************************************************/\n\tfunction resultFor(bytes32 id)\n\texternal view returns (bytes memory)\n\t{\n\t\tIexecODBLibCore.Task storage task = m_tasks[id];\n\t\trequire(task.status == IexecODBLibCore.TaskStatusEnum.COMPLETED);\n\t\treturn task.results;\n\t}\n\n\t/***************************************************************************\n\t *                            Consensus methods                            *\n\t ***************************************************************************/\n\tfunction initialize(bytes32 _dealid, uint256 idx)\n\tpublic returns (bytes32)\n\t{\n\t\tIexecODBLibCore.Deal memory deal = iexecclerk.viewDeal(_dealid);\n\n\t\trequire(idx >= deal.botFirst                  );\n\t\trequire(idx <  deal.botFirst.add(deal.botSize));\n\n\t\tbytes32 taskid  = keccak256(abi.encodePacked(_dealid, idx));\n\t\tIexecODBLibCore.Task storage task = m_tasks[taskid];\n\t\trequire(task.status == IexecODBLibCore.TaskStatusEnum.UNSET);\n\n\t\ttask.status               = IexecODBLibCore.TaskStatusEnum.ACTIVE;\n\t\ttask.dealid               = _dealid;\n\t\ttask.idx                  = idx;\n\t\ttask.timeref              = m_categories[deal.category].workClockTimeRef;\n\t\ttask.contributionDeadline = task.timeref.mul(CONTRIBUTION_DEADLINE_RATIO).add(deal.startTime);\n\t\ttask.finalDeadline        = task.timeref.mul(       FINAL_DEADLINE_RATIO).add(deal.startTime);\n\n\t\t// setup denominator\n\t\tm_totalweight[taskid] = 1;\n\n\t\temit TaskInitialize(taskid, iexecclerk.viewDeal(_dealid).workerpool.pointer);\n\n\t\treturn taskid;\n\t}\n\n\t// TODO: make external w/ calldata\n\tfunction contribute(\n\t\tbytes32      _taskid,\n\t\tbytes32      _resultHash,\n\t\tbytes32      _resultSeal,\n\t\taddress      _enclaveChallenge,\n\t\tbytes memory _enclaveSign,\n\t\tbytes memory _workerpoolSign)\n\tpublic\n\t{\n\t\tIexecODBLibCore.Task         storage task         = m_tasks[_taskid];\n\t\tIexecODBLibCore.Contribution storage contribution = m_contributions[_taskid][msg.sender];\n\t\tIexecODBLibCore.Deal         memory  deal         = iexecclerk.viewDeal(task.dealid);\n\n\t\trequire(task.status               == IexecODBLibCore.TaskStatusEnum.ACTIVE       );\n\t\trequire(task.contributionDeadline >  now                                         );\n\t\trequire(contribution.status       == IexecODBLibCore.ContributionStatusEnum.UNSET);\n\n\t\t// Check that the worker + taskid + enclave combo is authorized to contribute (scheduler signature)\n\t\trequire(verifySignature(\n\t\t\tdeal.workerpool.owner,\n\t\t\ttoEthSignedMessageHash(\n\t\t\t\tkeccak256(abi.encodePacked(\n\t\t\t\t\tmsg.sender,\n\t\t\t\t\t_taskid,\n\t\t\t\t\t_enclaveChallenge\n\t\t\t\t))\n\t\t\t),\n\t\t\t_workerpoolSign\n\t\t));\n\n\t\t// need enclave challenge if tag is set\n\t\trequire(_enclaveChallenge != address(0) || (deal.tag[31] & 0x01 == 0));\n\n\t\t// Check enclave signature\n\t\trequire(_enclaveChallenge == address(0) || verifySignature(\n\t\t\t_enclaveChallenge,\n\t\t\ttoEthSignedMessageHash(\n\t\t\t\tkeccak256(abi.encodePacked(\n\t\t\t\t\t_resultHash,\n\t\t\t\t\t_resultSeal\n\t\t\t\t))\n\t\t\t),\n\t\t\t_enclaveSign\n\t\t));\n\n\t\t// Update contribution entry\n\t\tcontribution.status           = IexecODBLibCore.ContributionStatusEnum.CONTRIBUTED;\n\t\tcontribution.resultHash       = _resultHash;\n\t\tcontribution.resultSeal       = _resultSeal;\n\t\tcontribution.enclaveChallenge = _enclaveChallenge;\n\t\ttask.contributors.push(msg.sender);\n\n\t\tiexecclerk.lockContribution(task.dealid, msg.sender);\n\n\t\temit TaskContribute(_taskid, msg.sender, _resultHash);\n\n\t\t// Contribution done  updating and checking concensus\n\n\t\t/*************************************************************************\n\t\t *                           SCORE POLICY 1/3                            *\n\t\t *                                                                       *\n\t\t *                          see documentation!                           *\n\t\t *************************************************************************/\n\t\t// k = 3\n\t\tuint256 weight = m_workerScores[msg.sender].div(3).max(3).sub(1);\n\t\tuint256 group  = m_groupweight[_taskid][_resultHash];\n\t\tuint256 delta  = group.max(1).mul(weight).sub(group);\n\n\t\tm_logweight  [_taskid][msg.sender ] = weight.log();\n\t\tm_groupweight[_taskid][_resultHash] = m_groupweight[_taskid][_resultHash].add(delta);\n\t\tm_totalweight[_taskid]              = m_totalweight[_taskid].add(delta);\n\n\t\t// Check consensus\n\t\tcheckConsensus(_taskid, _resultHash);\n\t}\n\tfunction checkConsensus(\n\t\tbytes32 _taskid,\n\t\tbytes32 _consensus)\n\tprivate\n\t{\n\t\tuint256 trust = iexecclerk.viewDeal(m_tasks[_taskid].dealid).trust;\n\t\tif (m_groupweight[_taskid][_consensus].mul(trust) > m_totalweight[_taskid].mul(trust.sub(1)))\n\t\t{\n\t\t\t// Preliminary checks done in \"contribute()\"\n\n\t\t\tIexecODBLibCore.Task storage task = m_tasks[_taskid];\n\t\t\tuint256 winnerCounter = 0;\n\t\t\tfor (uint256 i = 0; i < task.contributors.length; ++i)\n\t\t\t{\n\t\t\t\taddress w = task.contributors[i];\n\t\t\t\tif\n\t\t\t\t(\n\t\t\t\t\tm_contributions[_taskid][w].resultHash == _consensus\n\t\t\t\t\t&&\n\t\t\t\t\tm_contributions[_taskid][w].status == IexecODBLibCore.ContributionStatusEnum.CONTRIBUTED // REJECTED contribution must not be count\n\t\t\t\t)\n\t\t\t\t{\n\t\t\t\t\twinnerCounter = winnerCounter.add(1);\n\t\t\t\t}\n\t\t\t}\n\t\t\t// msg.sender is a contributor: no need to check\n\t\t\t// require(winnerCounter > 0);\n\t\t\ttask.status         = IexecODBLibCore.TaskStatusEnum.REVEALING;\n\t\t\ttask.consensusValue = _consensus;\n\t\t\ttask.revealDeadline = task.timeref.mul(REVEAL_DEADLINE_RATIO).add(now);\n\t\t\ttask.revealCounter  = 0;\n\t\t\ttask.winnerCounter  = winnerCounter;\n\n\t\t\temit TaskConsensus(_taskid, _consensus);\n\t\t}\n\t}\n\n\tfunction reveal(\n\t\tbytes32 _taskid,\n\t\tbytes32 _resultDigest)\n\texternal // worker\n\t{\n\t\tIexecODBLibCore.Task         storage task         = m_tasks[_taskid];\n\t\tIexecODBLibCore.Contribution storage contribution = m_contributions[_taskid][msg.sender];\n\t\trequire(task.status             == IexecODBLibCore.TaskStatusEnum.REVEALING                       );\n\t\trequire(task.revealDeadline     >  now                                                            );\n\t\trequire(contribution.status     == IexecODBLibCore.ContributionStatusEnum.CONTRIBUTED             );\n\t\trequire(contribution.resultHash == task.consensusValue                                            );\n\t\trequire(contribution.resultHash == keccak256(abi.encodePacked(            _taskid, _resultDigest)));\n\t\trequire(contribution.resultSeal == keccak256(abi.encodePacked(msg.sender, _taskid, _resultDigest)));\n\n\t\tcontribution.status = IexecODBLibCore.ContributionStatusEnum.PROVED;\n\t\ttask.revealCounter  = task.revealCounter.add(1);\n\t\ttask.resultDigest   = _resultDigest;\n\n\t\temit TaskReveal(_taskid, msg.sender, _resultDigest);\n\t}\n\n\tfunction reopen(\n\t\tbytes32 _taskid)\n\texternal onlyScheduler(_taskid)\n\t{\n\t\tIexecODBLibCore.Task storage task = m_tasks[_taskid];\n\t\trequire(task.status         == IexecODBLibCore.TaskStatusEnum.REVEALING);\n\t\trequire(task.finalDeadline  >  now                                     );\n\t\trequire(task.revealDeadline <= now\n\t\t     && task.revealCounter  == 0                                       );\n\n\t\tfor (uint256 i = 0; i < task.contributors.length; ++i)\n\t\t{\n\t\t\taddress worker = task.contributors[i];\n\t\t\tif (m_contributions[_taskid][worker].resultHash == task.consensusValue)\n\t\t\t{\n\t\t\t\tm_contributions[_taskid][worker].status = IexecODBLibCore.ContributionStatusEnum.REJECTED;\n\t\t\t}\n\t\t}\n\n\t\tm_totalweight[_taskid]                      = m_totalweight[_taskid].sub(m_groupweight[_taskid][task.consensusValue]);\n\t\tm_groupweight[_taskid][task.consensusValue] = 0;\n\n\t\ttask.status         = IexecODBLibCore.TaskStatusEnum.ACTIVE;\n\t\ttask.consensusValue = 0x0;\n\t\ttask.revealDeadline = 0;\n\t\ttask.winnerCounter  = 0;\n\n\t\temit TaskReopen(_taskid);\n\t}\n\n\tfunction finalize(\n\t\tbytes32          _taskid,\n\t\tbytes   calldata _results)\n\texternal onlyScheduler(_taskid)\n\t{\n\t\tIexecODBLibCore.Task storage task = m_tasks[_taskid];\n\t\trequire(task.status        == IexecODBLibCore.TaskStatusEnum.REVEALING);\n\t\trequire(task.finalDeadline >  now                                     );\n\t\trequire(task.revealCounter == task.winnerCounter\n\t\t    || (task.revealCounter >  0  && task.revealDeadline <= now)       );\n\n\t\ttask.status  = IexecODBLibCore.TaskStatusEnum.COMPLETED;\n\t\ttask.results = _results;\n\n\t\t/**\n\t\t * Stake and reward management\n\t\t */\n\t\tiexecclerk.successWork(task.dealid, _taskid);\n\t\tdistributeRewards(_taskid);\n\n\t\t/**\n\t\t * Event\n\t\t */\n\t\temit TaskFinalize(_taskid, _results);\n\n\t\t/**\n\t\t * Callback for smartcontracts using EIP1154\n\t\t */\n\t\taddress callbackTarget = iexecclerk.viewDeal(task.dealid).callback;\n\t\tif (callbackTarget != address(0))\n\t\t{\n\t\t\t/**\n\t\t\t * Call does not revert if the target smart contract is incompatible or reverts\n\t\t\t *\n\t\t\t * ATTENTION!\n\t\t\t * This call is dangerous and target smart contract can charge the stack.\n\t\t\t * Assume invalid state after the call.\n\t\t\t * See: https://solidity.readthedocs.io/en/develop/types.html#members-of-addresses\n\t\t\t *\n\t\t\t * TODO: gas provided?\n\t\t\t */\n\t\t\trequire(gasleft() > 100000);\n\t\t\tbool success;\n\t\t\t(success,) = callbackTarget.call.gas(100000)(abi.encodeWithSignature(\n\t\t\t\t\"receiveResult(bytes32,bytes)\",\n\t\t\t\t_taskid,\n\t\t\t\t_results\n\t\t\t));\n\t\t}\n\t}\n\n\tfunction distributeRewards(bytes32 _taskid)\n\tprivate\n\t{\n\t\tIexecODBLibCore.Task storage task = m_tasks[_taskid];\n\t\tIexecODBLibCore.Deal memory  deal = iexecclerk.viewDeal(task.dealid);\n\n\t\tuint256 i;\n\t\taddress worker;\n\n\t\tuint256 totalLogWeight = 0;\n\t\tuint256 totalReward = iexecclerk.viewDeal(task.dealid).workerpool.price;\n\n\t\tfor (i = 0; i < task.contributors.length; ++i)\n\t\t{\n\t\t\tworker = task.contributors[i];\n\t\t\tif (m_contributions[_taskid][worker].status == IexecODBLibCore.ContributionStatusEnum.PROVED)\n\t\t\t{\n\t\t\t\ttotalLogWeight = totalLogWeight.add(m_logweight[_taskid][worker]);\n\t\t\t}\n\t\t\telse // ContributionStatusEnum.REJECT or ContributionStatusEnum.CONTRIBUTED (not revealed)\n\t\t\t{\n\t\t\t\ttotalReward = totalReward.add(deal.workerStake);\n\t\t\t}\n\t\t}\n\t\trequire(totalLogWeight > 0);\n\n\t\t// compute how much is going to the workers\n\t\tuint256 workersReward = totalReward.percentage(uint256(100).sub(deal.schedulerRewardRatio));\n\n\t\tfor (i = 0; i < task.contributors.length; ++i)\n\t\t{\n\t\t\tworker = task.contributors[i];\n\t\t\tif (m_contributions[_taskid][worker].status == IexecODBLibCore.ContributionStatusEnum.PROVED)\n\t\t\t{\n\t\t\t\tuint256 workerReward = workersReward.mulByFraction(m_logweight[_taskid][worker], totalLogWeight);\n\t\t\t\ttotalReward          = totalReward.sub(workerReward);\n\n\t\t\t\tiexecclerk.unlockAndRewardForContribution(task.dealid, worker, workerReward, _taskid);\n\n\t\t\t\t// Only reward if replication happened\n\t\t\t\tif (task.contributors.length > 1)\n\t\t\t\t{\n\t\t\t\t\t/*******************************************************************\n\t\t\t\t\t *                        SCORE POLICY 2/3                         *\n\t\t\t\t\t *                                                                 *\n\t\t\t\t\t *                       see documentation!                        *\n\t\t\t\t\t *******************************************************************/\n\t\t\t\t\tm_workerScores[worker] = m_workerScores[worker].add(1);\n\t\t\t\t\temit AccurateContribution(worker, _taskid);\n\t\t\t\t}\n\t\t\t}\n\t\t\telse // WorkStatusEnum.POCO_REJECT or ContributionStatusEnum.CONTRIBUTED (not revealed)\n\t\t\t{\n\t\t\t\t// No Reward\n\t\t\t\tiexecclerk.seizeContribution(task.dealid, worker, _taskid);\n\n\t\t\t\t// Always punish bad contributors\n\t\t\t\t{\n\t\t\t\t\t/*******************************************************************\n\t\t\t\t\t *                        SCORE POLICY 3/3                         *\n\t\t\t\t\t *                                                                 *\n\t\t\t\t\t *                       see documentation!                        *\n\t\t\t\t\t *******************************************************************/\n\t\t\t\t\t// k = 3\n\t\t\t\t\tm_workerScores[worker] = m_workerScores[worker].mulByFraction(2,3);\n\t\t\t\t\temit FaultyContribution(worker, _taskid);\n\t\t\t\t}\n\t\t\t}\n\t\t}\n\t\t// totalReward now contains the scheduler share\n\t\tiexecclerk.rewardForScheduling(task.dealid, totalReward, _taskid);\n\t}\n\n\tfunction claim(\n\t\tbytes32 _taskid)\n\tpublic\n\t{\n\t\tIexecODBLibCore.Task storage task = m_tasks[_taskid];\n\t\trequire(task.status == IexecODBLibCore.TaskStatusEnum.ACTIVE\n\t\t     || task.status == IexecODBLibCore.TaskStatusEnum.REVEALING);\n\t\trequire(task.finalDeadline <= now);\n\n\t\ttask.status = IexecODBLibCore.TaskStatusEnum.FAILLED;\n\n\t\t/**\n\t\t * Stake management\n\t\t */\n\t\tiexecclerk.failedWork(task.dealid, _taskid);\n\t\tfor (uint256 i = 0; i < task.contributors.length; ++i)\n\t\t{\n\t\t\taddress worker = task.contributors[i];\n\t\t\tiexecclerk.unlockContribution(task.dealid, worker);\n\t\t}\n\n\t\temit TaskClaimed(_taskid);\n\t}\n\n\t/***************************************************************************\n\t *                            Array operations                             *\n\t ***************************************************************************/\n\tfunction initializeArray(\n\t\tbytes32[] calldata _dealid,\n\t\tuint256[] calldata _idx)\n\texternal returns (bool)\n\t{\n\t\trequire(_dealid.length == _idx.length);\n\t\tfor (uint i = 0; i < _dealid.length; ++i)\n\t\t{\n\t\t\tinitialize(_dealid[i], _idx[i]);\n\t\t}\n\t\treturn true;\n\t}\n\n\tfunction claimArray(\n\t\tbytes32[] calldata _taskid)\n\texternal returns (bool)\n\t{\n\t\tfor (uint i = 0; i < _taskid.length; ++i)\n\t\t{\n\t\t\tclaim(_taskid[i]);\n\t\t}\n\t\treturn true;\n\t}\n\n\tfunction initializeAndClaimArray(\n\t\tbytes32[] calldata _dealid,\n\t\tuint256[] calldata _idx)\n\texternal returns (bool)\n\t{\n\t\trequire(_dealid.length == _idx.length);\n\t\tfor (uint i = 0; i < _dealid.length; ++i)\n\t\t{\n\t\t\tclaim(initialize(_dealid[i], _idx[i]));\n\t\t}\n\t\treturn true;\n\t}\n\n\t/**\n\t * /!\\ TEMPORARY LEGACY /!\\\n\t */\n\n\tfunction viewTaskABILegacy(bytes32 _taskid)\n\texternal view returns\n\t( IexecODBLibCore.TaskStatusEnum\n\t, bytes32\n\t, uint256\n\t, uint256\n\t, uint256\n\t, uint256\n\t, uint256\n\t, bytes32\n\t, uint256\n\t, uint256\n\t, address[] memory\n\t, bytes     memory\n\t)\n\t{\n\t\tIexecODBLibCore.Task memory task = m_tasks[_taskid];\n\t\treturn (\n\t\t\ttask.status,\n\t\t\ttask.dealid,\n\t\t\ttask.idx,\n\t\t\ttask.timeref,\n\t\t\ttask.contributionDeadline,\n\t\t\ttask.revealDeadline,\n\t\t\ttask.finalDeadline,\n\t\t\ttask.consensusValue,\n\t\t\ttask.revealCounter,\n\t\t\ttask.winnerCounter,\n\t\t\ttask.contributors,\n\t\t\ttask.results\n\t\t);\n\t}\n\n\tfunction viewContributionABILegacy(bytes32 _taskid, address _worker)\n\texternal view returns\n\t( IexecODBLibCore.ContributionStatusEnum\n\t, bytes32\n\t, bytes32\n\t, address\n\t)\n\t{\n\t\tIexecODBLibCore.Contribution memory contribution = m_contributions[_taskid][_worker];\n\t\treturn (\n\t\t\tcontribution.status,\n\t\t\tcontribution.resultHash,\n\t\t\tcontribution.resultSeal,\n\t\t\tcontribution.enclaveChallenge\n\t\t);\n\t}\n\n\tfunction viewCategoryABILegacy(uint256 _catid)\n\texternal view returns (string memory, string memory, uint256)\n\t{\n\t\tIexecODBLibCore.Category memory category = m_categories[_catid];\n\t\treturn ( category.name, category.description, category.workClockTimeRef );\n\t}\n}\n",
  "sourcePath": "/home/amxx/Work/iExec/code/PoCo/contracts/IexecHub.sol",
  "compiler": {
    "name": "solc",
    "version": "0.5.7+commit.6da8b019.Emscripten.clang"
  },
  "schemaVersion": "3.0.6",
  "updatedAt": "2019-04-05T12:12:17.588Z",
  "devdoc": {
    "methods": {
      "isOwner()": {
        "return": "true if `msg.sender` is the owner of the contract."
      },
      "owner()": {
        "return": "the address of the owner."
      },
      "renounceOwnership()": {
        "details": "Allows the current owner to relinquish control of the contract."
      },
      "transferOwnership(address)": {
        "details": "Allows the current owner to transfer control of the contract to a newOwner.",
        "params": {
          "newOwner": "The address to transfer ownership to."
        }
      }
    }
  },
  "userdoc": {
    "methods": {
      "constructor": "*************************************************************************                              Constructor                               ***************************************************************************",
      "createCategory(string,string,uint256)": {
        "notice": "Methods"
      },
      "initialize(bytes32,uint256)": {
        "notice": "*************************************************************************                           Consensus methods                            ***************************************************************************"
      },
      "initializeArray(bytes32[],uint256[])": {
        "notice": "*************************************************************************                           Array operations                             ***************************************************************************"
      },
      "renounceOwnership()": {
        "notice": "Renouncing to ownership will leave the contract without an owner. It will not be possible to call the functions with the `onlyOwner` modifier anymore."
      },
      "resultFor(bytes32)": {
        "notice": "*************************************************************************                        EIP 1154 PULL INTERFACE                         ***************************************************************************"
      },
      "viewCategory(uint256)": {
        "notice": "Accessors"
      },
      "viewTask(bytes32)": {
        "notice": "*************************************************************************                               Accessors                                ***************************************************************************"
      },
      "viewTaskABILegacy(bytes32)": {
        "notice": "/!\\ TEMPORARY LEGACY /!\\"
      }
    }
  }
}