{
  "contractName": "PubKeyDirectory",
  "abi": [
    {
      "inputs": [],
      "payable": false,
      "stateMutability": "nonpayable",
      "type": "constructor"
    },
    {
      "constant": true,
      "inputs": [
        {
          "name": "_addr",
          "type": "address"
        }
      ],
      "name": "getKey",
      "outputs": [
        {
          "name": "",
          "type": "bytes"
        }
      ],
      "payable": false,
      "stateMutability": "view",
      "type": "function"
    },
    {
      "constant": false,
      "inputs": [
        {
          "name": "_key",
          "type": "bytes"
        }
      ],
      "name": "setKey",
      "outputs": [],
      "payable": false,
      "stateMutability": "nonpayable",
      "type": "function"
    },
    {
      "constant": false,
      "inputs": [
        {
          "name": "_contract",
          "type": "address"
        },
        {
          "name": "_key",
          "type": "bytes"
        }
      ],
      "name": "setContractKey",
      "outputs": [],
      "payable": false,
      "stateMutability": "nonpayable",
      "type": "function"
    }
  ],
  "bytecode": "0x608060405234801561001057600080fd5b506104c6806100206000396000f3fe608060405234801561001057600080fd5b506004361061005d577c01000000000000000000000000000000000000000000000000000000006000350463218ebfa3811461006257806393790f44146100d4578063bc27745f1461016f575b600080fd5b6100d26004803603602081101561007857600080fd5b81019060208101813564010000000081111561009357600080fd5b8201836020820111156100a557600080fd5b803590602001918460018302840111640100000000831117156100c757600080fd5b5090925090506101ef565b005b6100fa600480360360208110156100ea57600080fd5b5035600160a060020a031661026f565b6040805160208082528351818301528351919283929083019185019080838360005b8381101561013457818101518382015260200161011c565b50505050905090810190601f1680156101615780820380516001836020036101000a031916815260200191505b509250505060405180910390f35b6100d26004803603604081101561018557600080fd5b600160a060020a0382351691908101906040810160208201356401000000008111156101b057600080fd5b8201836020820111156101c257600080fd5b803590602001918460018302840111640100000000831117156101e457600080fd5b509092509050610318565b604081146101fc57600080fd5b60006060838360405180838380828437808301925050509250505060405180910390209060020a0290508282600080846c010000000000000000000000009004600160a060020a0316600160a060020a0316815260200190815260200160002091906102699291906103ff565b50505050565b600160a060020a0381166000908152602081815260409182902080548351601f600260001961010060018616150201909316929092049182018490048402810184019094528084526060939283018282801561030c5780601f106102e15761010080835404028352916020019161030c565b820191906000526020600020905b8154815290600101906020018083116102ef57829003601f168201915b50505050509050919050565b823b8061032457600080fd5b600160a060020a0384163314806103cc575033600160a060020a031684600160a060020a0316638da5cb5b6040518163ffffffff167c010000000000000000000000000000000000000000000000000000000002815260040160206040518083038186803b15801561039557600080fd5b505afa1580156103a9573d6000803e3d6000fd5b505050506040513d60208110156103bf57600080fd5b5051600160a060020a0316145b6103d557600080fd5b600160a060020a03841660009081526020819052604090206103f89084846103ff565b5050505050565b828054600181600116156101000203166002900490600052602060002090601f016020900481019282601f106104405782800160ff1982351617855561046d565b8280016001018555821561046d579182015b8281111561046d578235825591602001919060010190610452565b5061047992915061047d565b5090565b61049791905b808211156104795760008155600101610483565b9056fea165627a7a723058206a08b50efc057994713c0aa6fb341143a945d4b277044946c22a2dc45b4c0de20029",
  "source": "pragma solidity ^0.5.7;\n\nimport \"../node_modules/openzeppelin-solidity/contracts/ownership/Ownable.sol\";\n\ncontract PubKeyDirectory\n{\n\tmapping(address => bytes) m_pubkeys;\n\n\t/**\n\t * Constructor\n\t */\n\tconstructor()\n\tpublic\n\t{\n\t}\n\n\tfunction getKey(address _addr)\n\texternal view returns (bytes memory)\n\t{\n\t\treturn m_pubkeys[_addr];\n\t}\n\n\tfunction setKey(bytes calldata _key)\n\texternal\n\t{\n\t\t// Extract address from public key\n\t\trequire(_key.length == 0x40);\n\t\tbytes20 addr = bytes20(keccak256(_key) << 0x60);\n\t\t// Store public key\n\t\tm_pubkeys[address(addr)] = _key;\n\t}\n\n\tfunction setContractKey(address _contract, bytes calldata _key)\n\texternal\n\t{\n\t\t// Check _contract is in fact a contract\n\t\tuint size;\n\t\tassembly { size := extcodesize(_contract) }\n\t\trequire(size > 0);\n\t\t// Check operation is performed by the owner\n\t\trequire(_contract == msg.sender || Ownable(_contract).owner() == msg.sender);\n\t\t// Store public key\n\t\tm_pubkeys[_contract] = _key;\n\t}\n\n}\n",
  "sourcePath": "/home/amxx/Work/iExec/code/PoCo/contracts/PubKeyDirectory.sol",
  "compiler": {
    "name": "solc",
    "version": "0.5.7+commit.6da8b019.Emscripten.clang"
  },
  "schemaVersion": "3.0.6",
  "updatedAt": "2019-04-05T12:12:17.538Z",
  "devdoc": {
    "methods": {}
  },
  "userdoc": {
    "methods": {
      "constructor": "Constructor"
    }
  }
}