{
  "contractName": "SignatureVerifier",
  "abi": [
    {
      "constant": true,
      "inputs": [
        {
          "name": "_identity",
          "type": "address"
        },
        {
          "name": "_hash",
          "type": "bytes32"
        },
        {
          "name": "_signature",
          "type": "bytes"
        }
      ],
      "name": "verifySignature",
      "outputs": [
        {
          "name": "",
          "type": "bool"
        }
      ],
      "payable": false,
      "stateMutability": "view",
      "type": "function"
    }
  ],
  "bytecode": "0x608060405234801561001057600080fd5b506104fb806100206000396000f3fe608060405234801561001057600080fd5b5060043610610047577c0100000000000000000000000000000000000000000000000000000000600035046301751998811461004c575b600080fd5b61005f61005a36600461029d565b610075565b60405161006c9190610381565b60405180910390f35b6000610082848484610136565b8061012c57506040517f1626ba7e00000000000000000000000000000000000000000000000000000000815273ffffffffffffffffffffffffffffffffffffffff851690631626ba7e906100dc9086908690600401610395565b60206040518083038186803b1580156100f457600080fd5b505afa158015610108573d6000803e3d6000fd5b505050506040513d601f19601f8201168201806040525061012c9190810190610302565b90505b9392505050565b6000806000808451604114610151576000935050505061012f565b50505060208201516040830151606084015160001a601b81101561017357601b015b8060ff16601b1415801561018b57508060ff16601c14155b1561019c576000935050505061012f565b600186828585604051600081526020016040526040516101bf94939291906103b5565b6020604051602081039080840390855afa1580156101e1573d6000803e3d6000fd5b5050506020604051035173ffffffffffffffffffffffffffffffffffffffff168773ffffffffffffffffffffffffffffffffffffffff161493505050509392505050565b600061012f823561045d565b600061012f825161044f565b600061012f8235610454565b600082601f83011261025a57600080fd5b813561026d6102688261041a565b6103f3565b9150808252602083016020830185838301111561028957600080fd5b61029483828461047b565b50505092915050565b6000806000606084860312156102b257600080fd5b60006102be8686610225565b93505060206102cf8682870161023d565b925050604084013567ffffffffffffffff8111156102ec57600080fd5b6102f886828701610249565b9150509250925092565b60006020828403121561031457600080fd5b60006103208484610231565b949350505050565b6103318161044f565b82525050565b61033181610454565b600061034b82610442565b6103558185610446565b9350610365818560208601610487565b61036e816104b7565b9093019392505050565b61033181610457565b6020810161038f8284610328565b92915050565b604081016103a38285610337565b818103602083015261012c8184610340565b608081016103c38287610337565b6103d06020830186610378565b6103dd6040830185610337565b6103ea6060830184610337565b95945050505050565b60405181810167ffffffffffffffff8111828210171561041257600080fd5b604052919050565b600067ffffffffffffffff82111561043157600080fd5b506020601f91909101601f19160190565b5190565b90815260200190565b151590565b90565b60ff1690565b600073ffffffffffffffffffffffffffffffffffffffff821661038f565b82818337506000910152565b60005b838110156104a257818101518382015260200161048a565b838111156104b1576000848401525b50505050565b601f01601f19169056fea265627a7a723058204f405b2d444bcc2b0451263fa6515915638b57c70288ba918e3a78aa5abab98a6c6578706572696d656e74616cf50037",
  "source": "pragma solidity ^0.5.7;\npragma experimental ABIEncoderV2;\n\nimport \"../node_modules/iexec-solidity/contracts/ERC734_KeyManager/IERC734.sol\";\nimport \"../node_modules/iexec-solidity/contracts/ERC1271/IERC1271.sol\";\n\ncontract SignatureVerifier\n{\n\tfunction checkIdentity(address _identity, address _candidate, uint256 _purpose)\n\tinternal view returns (bool valid)\n\t{\n\t\treturn _identity == _candidate || IERC734(_identity).keyHasPurpose(keccak256(abi.encode(_candidate)), _purpose); // Simple address || ERC 734 identity contract\n\t}\n\n\t// internal ?\n\tfunction verifySignature(\n\t\taddress      _identity,\n\t\tbytes32      _hash,\n\t\tbytes memory _signature)\n\tpublic view returns (bool)\n\t{\n\t\treturn recoverCheck(_identity, _hash, _signature) || IERC1271(_identity).isValidSignature(_hash, _signature);\n\t}\n\n\t// recoverCheck does not revert if signature has invalid format\n\tfunction recoverCheck(address candidate, bytes32 hash, bytes memory sign)\n\tinternal pure returns (bool)\n\t{\n\t\tbytes32 r;\n\t\tbytes32 s;\n\t\tuint8   v;\n\t\tif (sign.length != 65) return false;\n\t\tassembly\n\t\t{\n\t\t\tr :=         mload(add(sign, 0x20))\n\t\t\ts :=         mload(add(sign, 0x40))\n\t\t\tv := byte(0, mload(add(sign, 0x60)))\n\t\t}\n\t\tif (v < 27) v += 27;\n\t\tif (v != 27 && v != 28) return false;\n\t\treturn candidate == ecrecover(hash, v, r, s);\n\t}\n\n\tfunction toEthSignedMessageHash(bytes32 hash)\n\tinternal pure returns (bytes32)\n\t{\n\t\treturn keccak256(abi.encodePacked(\"\\x19Ethereum Signed Message:\\n32\", hash));\n\t}\n}\n",
  "sourcePath": "/home/amxx/Work/iExec/code/PoCo/contracts/SignatureVerifier.sol",
  "compiler": {
    "name": "solc",
    "version": "0.5.7+commit.6da8b019.Emscripten.clang"
  },
  "schemaVersion": "3.0.6",
  "updatedAt": "2019-04-05T12:12:17.543Z",
  "devdoc": {
    "methods": {}
  },
  "userdoc": {
    "methods": {}
  }
}