{
  "contractName": "SMSDirectory",
  "abi": [
    {
      "inputs": [],
      "payable": false,
      "stateMutability": "nonpayable",
      "type": "constructor"
    },
    {
      "constant": true,
      "inputs": [
        {
          "name": "_ressource",
          "type": "address"
        }
      ],
      "name": "getSMS",
      "outputs": [
        {
          "name": "",
          "type": "bytes"
        }
      ],
      "payable": false,
      "stateMutability": "view",
      "type": "function"
    },
    {
      "constant": false,
      "inputs": [
        {
          "name": "_ressource",
          "type": "address"
        },
        {
          "name": "_sms",
          "type": "bytes"
        }
      ],
      "name": "setSMS",
      "outputs": [],
      "payable": false,
      "stateMutability": "nonpayable",
      "type": "function"
    }
  ],
  "bytecode": "0x608060405234801561001057600080fd5b506103be806100206000396000f3fe608060405234801561001057600080fd5b5060043610610052577c01000000000000000000000000000000000000000000000000000000006000350463307a7a5a81146100575780635061e52d146100f2575b600080fd5b61007d6004803603602081101561006d57600080fd5b5035600160a060020a0316610174565b6040805160208082528351818301528351919283929083019185019080838360005b838110156100b757818101518382015260200161009f565b50505050905090810190601f1680156100e45780820380516001836020036101000a031916815260200191505b509250505060405180910390f35b6101726004803603604081101561010857600080fd5b600160a060020a03823516919081019060408101602082013564010000000081111561013357600080fd5b82018360208201111561014557600080fd5b8035906020019184600183028401116401000000008311171561016757600080fd5b50909250905061021d565b005b600160a060020a0381166000908152602081815260409182902080548351601f60026000196101006001861615020190931692909204918201849004840281018401909452808452606093928301828280156102115780601f106101e657610100808354040283529160200191610211565b820191906000526020600020905b8154815290600101906020018083116101f457829003601f168201915b50505050509050919050565b600160a060020a0383163314806102c5575033600160a060020a031683600160a060020a0316638da5cb5b6040518163ffffffff167c010000000000000000000000000000000000000000000000000000000002815260040160206040518083038186803b15801561028e57600080fd5b505afa1580156102a2573d6000803e3d6000fd5b505050506040513d60208110156102b857600080fd5b5051600160a060020a0316145b6102ce57600080fd5b600160a060020a03831660009081526020819052604090206102f19083836102f7565b50505050565b828054600181600116156101000203166002900490600052602060002090601f016020900481019282601f106103385782800160ff19823516178555610365565b82800160010185558215610365579182015b8281111561036557823582559160200191906001019061034a565b50610371929150610375565b5090565b61038f91905b80821115610371576000815560010161037b565b9056fea165627a7a72305820dd30b9f6845ddd79478a21de5002c27643ba3889a84da4e77f20132d2c388dca0029",
  "source": "pragma solidity ^0.5.7;\n\nimport \"../node_modules/openzeppelin-solidity/contracts/ownership/Ownable.sol\";\n\ncontract SMSDirectory\n{\n\tmapping(address => bytes) m_entries;\n\n\t/**\n\t * Constructor\n\t */\n\tconstructor()\n\tpublic\n\t{\n\t}\n\n\tfunction getSMS(address _ressource)\n\texternal view returns (bytes memory)\n\t{\n\t\treturn m_entries[_ressource];\n\t}\n\n\tfunction setSMS(address _ressource, bytes calldata _sms)\n\texternal\n\t{\n\t\trequire(_ressource == msg.sender || Ownable(_ressource).owner() == msg.sender);\n\t\tm_entries[_ressource] = _sms;\n\t}\n\n}\n",
  "sourcePath": "/home/amxx/Work/iExec/code/PoCo/contracts/SMSDirectory.sol",
  "compiler": {
    "name": "solc",
    "version": "0.5.7+commit.6da8b019.Emscripten.clang"
  },
  "schemaVersion": "3.0.6",
  "updatedAt": "2019-04-05T12:12:17.527Z",
  "devdoc": {
    "methods": {}
  },
  "userdoc": {
    "methods": {
      "constructor": "Constructor"
    }
  }
}