{
  "contractName": "TestClient",
  "abi": [
    {
      "constant": true,
      "inputs": [
        {
          "name": "",
          "type": "bytes32"
        }
      ],
      "name": "store",
      "outputs": [
        {
          "name": "",
          "type": "bytes"
        }
      ],
      "payable": false,
      "stateMutability": "view",
      "type": "function"
    },
    {
      "inputs": [],
      "payable": false,
      "stateMutability": "nonpayable",
      "type": "constructor"
    },
    {
      "anonymous": false,
      "inputs": [
        {
          "indexed": true,
          "name": "id",
          "type": "bytes32"
        },
        {
          "indexed": false,
          "name": "result",
          "type": "bytes"
        }
      ],
      "name": "GotResult",
      "type": "event"
    },
    {
      "constant": false,
      "inputs": [
        {
          "name": "id",
          "type": "bytes32"
        },
        {
          "name": "result",
          "type": "bytes"
        }
      ],
      "name": "receiveResult",
      "outputs": [],
      "payable": false,
      "stateMutability": "nonpayable",
      "type": "function"
    }
  ],
  "bytecode": "0x608060405234801561001057600080fd5b50610343806100206000396000f3fe608060405234801561001057600080fd5b5060043610610052577c010000000000000000000000000000000000000000000000000000000060003504635dd808558114610057578063654cf88c146100d0575b600080fd5b6100ce6004803603604081101561006d57600080fd5b8135919081019060408101602082013564010000000081111561008f57600080fd5b8201836020820111156100a157600080fd5b803590602001918460018302840111640100000000831117156100c357600080fd5b509092509050610162565b005b6100ed600480360360208110156100e657600080fd5b50356101e2565b6040805160208082528351818301528351919283929083019185019080838360005b8381101561012757818101518382015260200161010f565b50505050905090810190601f1680156101545780820380516001836020036101000a031916815260200191505b509250505060405180910390f35b600083815260208190526040902061017b90838361027c565b50827fccc426763ac02171b240f5f93cd8963dad9700205747a4a23f9c9854f9e9cf3a838360405180806020018281038252848482818152602001925080828437600083820152604051601f909101601f19169092018290039550909350505050a2505050565b600060208181529181526040908190208054825160026001831615610100026000190190921691909104601f8101859004850282018501909352828152929091908301828280156102745780601f1061024957610100808354040283529160200191610274565b820191906000526020600020905b81548152906001019060200180831161025757829003601f168201915b505050505081565b828054600181600116156101000203166002900490600052602060002090601f016020900481019282601f106102bd5782800160ff198235161785556102ea565b828001600101855582156102ea579182015b828111156102ea5782358255916020019190600101906102cf565b506102f69291506102fa565b5090565b61031491905b808211156102f65760008155600101610300565b9056fea165627a7a7230582010c87a771b853582be19ab156a500e74b7dffd51d4976c162425da7b505214770029",
  "source": "pragma solidity ^0.5.7;\n\nimport \"../node_modules/iexec-solidity/contracts/ERC1154_OracleInterface/IERC1154.sol\";\n\ncontract TestClient is IOracleConsumer\n{\n\tevent GotResult(bytes32 indexed id, bytes result);\n\n\tmapping(bytes32 => bytes) public store;\n\n\tconstructor()\n\tpublic\n\t{\n\t}\n\n\tfunction receiveResult(bytes32 id, bytes calldata result) external\n\t{\n\t\tstore[id] = result;\n\t\temit GotResult(id, result);\n\t}\n\n}\n",
  "sourcePath": "/home/amxx/Work/iExec/code/PoCo/contracts/TestClient.sol",
  "compiler": {
    "name": "solc",
    "version": "0.5.7+commit.6da8b019.Emscripten.clang"
  },
  "schemaVersion": "3.0.6",
  "updatedAt": "2019-04-05T12:12:17.518Z",
  "devdoc": {
    "methods": {}
  },
  "userdoc": {
    "methods": {}
  }
}