{
  "contractName": "Workerpool",
  "abi": [
    {
      "constant": true,
      "inputs": [],
      "name": "m_workerpoolDescription",
      "outputs": [
        {
          "name": "",
          "type": "string"
        }
      ],
      "payable": false,
      "stateMutability": "view",
      "type": "function"
    },
    {
      "constant": false,
      "inputs": [],
      "name": "renounceOwnership",
      "outputs": [],
      "payable": false,
      "stateMutability": "nonpayable",
      "type": "function"
    },
    {
      "constant": true,
      "inputs": [],
      "name": "m_schedulerRewardRatioPolicy",
      "outputs": [
        {
          "name": "",
          "type": "uint256"
        }
      ],
      "payable": false,
      "stateMutability": "view",
      "type": "function"
    },
    {
      "constant": true,
      "inputs": [],
      "name": "owner",
      "outputs": [
        {
          "name": "",
          "type": "address"
        }
      ],
      "payable": false,
      "stateMutability": "view",
      "type": "function"
    },
    {
      "constant": true,
      "inputs": [],
      "name": "isOwner",
      "outputs": [
        {
          "name": "",
          "type": "bool"
        }
      ],
      "payable": false,
      "stateMutability": "view",
      "type": "function"
    },
    {
      "constant": true,
      "inputs": [],
      "name": "m_workerStakeRatioPolicy",
      "outputs": [
        {
          "name": "",
          "type": "uint256"
        }
      ],
      "payable": false,
      "stateMutability": "view",
      "type": "function"
    },
    {
      "inputs": [
        {
          "name": "_workerpoolOwner",
          "type": "address"
        },
        {
          "name": "_workerpoolDescription",
          "type": "string"
        }
      ],
      "payable": false,
      "stateMutability": "nonpayable",
      "type": "constructor"
    },
    {
      "anonymous": false,
      "inputs": [
        {
          "indexed": false,
          "name": "oldWorkerStakeRatioPolicy",
          "type": "uint256"
        },
        {
          "indexed": false,
          "name": "newWorkerStakeRatioPolicy",
          "type": "uint256"
        },
        {
          "indexed": false,
          "name": "oldSchedulerRewardRatioPolicy",
          "type": "uint256"
        },
        {
          "indexed": false,
          "name": "newSchedulerRewardRatioPolicy",
          "type": "uint256"
        }
      ],
      "name": "PolicyUpdate",
      "type": "event"
    },
    {
      "anonymous": false,
      "inputs": [
        {
          "indexed": true,
          "name": "previousOwner",
          "type": "address"
        },
        {
          "indexed": true,
          "name": "newOwner",
          "type": "address"
        }
      ],
      "name": "OwnershipTransferred",
      "type": "event"
    },
    {
      "constant": false,
      "inputs": [
        {
          "name": "_newWorkerStakeRatioPolicy",
          "type": "uint256"
        },
        {
          "name": "_newSchedulerRewardRatioPolicy",
          "type": "uint256"
        }
      ],
      "name": "changePolicy",
      "outputs": [],
      "payable": false,
      "stateMutability": "nonpayable",
      "type": "function"
    },
    {
      "constant": false,
      "inputs": [
        {
          "name": "",
          "type": "address"
        }
      ],
      "name": "transferOwnership",
      "outputs": [],
      "payable": false,
      "stateMutability": "nonpayable",
      "type": "function"
    }
  ],
  "bytecode": "0x608060405234801561001057600080fd5b506040516106613803806106618339810180604052604081101561003357600080fd5b81516020830180519193928301929164010000000081111561005457600080fd5b8201602081018481111561006757600080fd5b815164010000000081118282018710171561008157600080fd5b505060008054600160a060020a0319163317808255604051929550600160a060020a031693509150600080516020610641833981519152908290a36100ce826401000000006100f3810204565b80516100e190600190602084019061014f565b5050601e6002555060016003556101ea565b600160a060020a03811661010657600080fd5b60008054604051600160a060020a038085169392169160008051602061064183398151915291a360008054600160a060020a031916600160a060020a0392909216919091179055565b828054600181600116156101000203166002900490600052602060002090601f016020900481019282601f1061019057805160ff19168380011785556101bd565b828001600101855582156101bd579182015b828111156101bd5782518255916020019190600101906101a2565b506101c99291506101cd565b5090565b6101e791905b808211156101c957600081556001016101d3565b90565b610448806101f96000396000f3fe608060405234801561001057600080fd5b50600436106100a5576000357c0100000000000000000000000000000000000000000000000000000000900480638f32d59b116100785780638f32d59b1461017c578063b55e75af14610198578063f199413c146101a0578063f2fde38b146101c3576100a5565b8063584feb3a146100aa578063715018a61461012757806387639c68146101315780638da5cb5b1461014b575b600080fd5b6100b26101f6565b6040805160208082528351818301528351919283929083019185019080838360005b838110156100ec5781810151838201526020016100d4565b50505050905090810190601f1680156101195780820380516001836020036101000a031916815260200191505b509250505060405180910390f35b61012f610283565b005b6101396102f8565b60408051918252519081900360200190f35b6101536102fe565b6040805173ffffffffffffffffffffffffffffffffffffffff9092168252519081900360200190f35b61018461031a565b604080519115158252519081900360200190f35b610139610338565b61012f600480360360408110156101b657600080fd5b508035906020013561033e565b61012f600480360360208110156101d957600080fd5b503573ffffffffffffffffffffffffffffffffffffffff166103b5565b60018054604080516020600284861615610100026000190190941693909304601f8101849004840282018401909252818152929183018282801561027b5780601f106102505761010080835404028352916020019161027b565b820191906000526020600020905b81548152906001019060200180831161025e57829003601f168201915b505050505081565b61028b61031a565b61029457600080fd5b6000805460405173ffffffffffffffffffffffffffffffffffffffff909116907f8be0079c531659141344cd1fd0a4f28419497f9722a3daafe3b4186f6b6457e0908390a36000805473ffffffffffffffffffffffffffffffffffffffff19169055565b60035481565b60005473ffffffffffffffffffffffffffffffffffffffff1690565b60005473ffffffffffffffffffffffffffffffffffffffff16331490565b60025481565b61034661031a565b61034f57600080fd5b606481111561035d57600080fd5b60025460035460408051928352602083018590528281019190915260608201839052517f61f37ef3a6d587ce2d6be79492e1fac570f2745787015db7ed95ad4397b05c1e9181900360800190a1600291909155600355565b604080517f08c379a000000000000000000000000000000000000000000000000000000000815260206004820152600860248201527f64697361626c6564000000000000000000000000000000000000000000000000604482015290519081900360640190fdfea165627a7a723058203589d52419e3928f5427b2aad0c5c8e5a62a96d062a9027325ece04dbca2c82c00298be0079c531659141344cd1fd0a4f28419497f9722a3daafe3b4186f6b6457e0",
  "source": "pragma solidity ^0.5.7;\n\nimport \"../../node_modules/openzeppelin-solidity/contracts/ownership/Ownable.sol\";\n\ncontract Workerpool is Ownable\n{\n\t/**\n\t * Parameters\n\t */\n\tstring  public m_workerpoolDescription;\n\tuint256 public m_workerStakeRatioPolicy;     // % of reward to stake\n\tuint256 public m_schedulerRewardRatioPolicy; // % of reward given to scheduler\n\n\t/**\n\t * Events\n\t */\n\tevent PolicyUpdate(\n\t\tuint256 oldWorkerStakeRatioPolicy,     uint256 newWorkerStakeRatioPolicy,\n\t\tuint256 oldSchedulerRewardRatioPolicy, uint256 newSchedulerRewardRatioPolicy);\n\n\t/**\n\t * Constructor\n\t */\n\tconstructor(\n\t\taddress        _workerpoolOwner,\n\t\tstring  memory _workerpoolDescription)\n\tpublic\n\t{\n\t\t_transferOwnership(_workerpoolOwner);\n\t\tm_workerpoolDescription      = _workerpoolDescription;\n\t\tm_workerStakeRatioPolicy     = 30; // mutable\n\t\tm_schedulerRewardRatioPolicy = 1;  // mutable\n\t}\n\n\tfunction changePolicy(\n\t\tuint256 _newWorkerStakeRatioPolicy,\n\t\tuint256 _newSchedulerRewardRatioPolicy)\n\tpublic onlyOwner\n\t{\n\t\trequire(_newSchedulerRewardRatioPolicy <= 100);\n\n\t\temit PolicyUpdate(\n\t\t\tm_workerStakeRatioPolicy,     _newWorkerStakeRatioPolicy,\n\t\t\tm_schedulerRewardRatioPolicy, _newSchedulerRewardRatioPolicy\n\t\t);\n\n\t\tm_workerStakeRatioPolicy     = _newWorkerStakeRatioPolicy;\n\t\tm_schedulerRewardRatioPolicy = _newSchedulerRewardRatioPolicy;\n\t}\n\n\tfunction transferOwnership(address) public { revert(\"disabled\"); }\n\n}\n",
  "sourcePath": "/home/amxx/Work/iExec/code/PoCo/contracts/registries/Workerpool.sol",
  "compiler": {
    "name": "solc",
    "version": "0.5.7+commit.6da8b019.Emscripten.clang"
  },
  "schemaVersion": "3.0.6",
  "updatedAt": "2019-04-05T12:12:17.535Z",
  "devdoc": {
    "methods": {
      "isOwner()": {
        "return": "true if `msg.sender` is the owner of the contract."
      },
      "owner()": {
        "return": "the address of the owner."
      },
      "renounceOwnership()": {
        "details": "Allows the current owner to relinquish control of the contract."
      }
    }
  },
  "userdoc": {
    "methods": {
      "constructor": "Constructor",
      "renounceOwnership()": {
        "notice": "Renouncing to ownership will leave the contract without an owner. It will not be possible to call the functions with the `onlyOwner` modifier anymore."
      }
    }
  }
}